{
  "contractName": "NFT",
  "abi": [
    {
      "inputs": [
        {
          "internalType": "address",
          "name": "initialOwner",
          "type": "address"
        }
      ],
      "stateMutability": "nonpayable",
      "type": "constructor"
    },
    {
      "inputs": [],
      "name": "AccessControlBadConfirmation",
      "type": "error"
    },
    {
      "inputs": [
        {
          "internalType": "address",
          "name": "account",
          "type": "address"
        },
        {
          "internalType": "bytes32",
          "name": "neededRole",
          "type": "bytes32"
        }
      ],
      "name": "AccessControlUnauthorizedAccount",
      "type": "error"
    },
    {
      "inputs": [],
      "name": "ERC721EnumerableForbiddenBatchMint",
      "type": "error"
    },
    {
      "inputs": [
        {
          "internalType": "address",
          "name": "sender",
          "type": "address"
        },
        {
          "internalType": "uint256",
          "name": "tokenId",
          "type": "uint256"
        },
        {
          "internalType": "address",
          "name": "owner",
          "type": "address"
        }
      ],
      "name": "ERC721IncorrectOwner",
      "type": "error"
    },
    {
      "inputs": [
        {
          "internalType": "address",
          "name": "operator",
          "type": "address"
        },
        {
          "internalType": "uint256",
          "name": "tokenId",
          "type": "uint256"
        }
      ],
      "name": "ERC721InsufficientApproval",
      "type": "error"
    },
    {
      "inputs": [
        {
          "internalType": "address",
          "name": "approver",
          "type": "address"
        }
      ],
      "name": "ERC721InvalidApprover",
      "type": "error"
    },
    {
      "inputs": [
        {
          "internalType": "address",
          "name": "operator",
          "type": "address"
        }
      ],
      "name": "ERC721InvalidOperator",
      "type": "error"
    },
    {
      "inputs": [
        {
          "internalType": "address",
          "name": "owner",
          "type": "address"
        }
      ],
      "name": "ERC721InvalidOwner",
      "type": "error"
    },
    {
      "inputs": [
        {
          "internalType": "address",
          "name": "receiver",
          "type": "address"
        }
      ],
      "name": "ERC721InvalidReceiver",
      "type": "error"
    },
    {
      "inputs": [
        {
          "internalType": "address",
          "name": "sender",
          "type": "address"
        }
      ],
      "name": "ERC721InvalidSender",
      "type": "error"
    },
    {
      "inputs": [
        {
          "internalType": "uint256",
          "name": "tokenId",
          "type": "uint256"
        }
      ],
      "name": "ERC721NonexistentToken",
      "type": "error"
    },
    {
      "inputs": [
        {
          "internalType": "address",
          "name": "owner",
          "type": "address"
        },
        {
          "internalType": "uint256",
          "name": "index",
          "type": "uint256"
        }
      ],
      "name": "ERC721OutOfBoundsIndex",
      "type": "error"
    },
    {
      "anonymous": false,
      "inputs": [
        {
          "indexed": true,
          "internalType": "address",
          "name": "owner",
          "type": "address"
        },
        {
          "indexed": true,
          "internalType": "address",
          "name": "approved",
          "type": "address"
        },
        {
          "indexed": true,
          "internalType": "uint256",
          "name": "tokenId",
          "type": "uint256"
        }
      ],
      "name": "Approval",
      "type": "event"
    },
    {
      "anonymous": false,
      "inputs": [
        {
          "indexed": true,
          "internalType": "address",
          "name": "owner",
          "type": "address"
        },
        {
          "indexed": true,
          "internalType": "address",
          "name": "operator",
          "type": "address"
        },
        {
          "indexed": false,
          "internalType": "bool",
          "name": "approved",
          "type": "bool"
        }
      ],
      "name": "ApprovalForAll",
      "type": "event"
    },
    {
      "anonymous": false,
      "inputs": [
        {
          "indexed": false,
          "internalType": "uint256",
          "name": "_fromTokenId",
          "type": "uint256"
        },
        {
          "indexed": false,
          "internalType": "uint256",
          "name": "_toTokenId",
          "type": "uint256"
        }
      ],
      "name": "BatchMetadataUpdate",
      "type": "event"
    },
    {
      "anonymous": false,
      "inputs": [
        {
          "indexed": false,
          "internalType": "uint256",
          "name": "_tokenId",
          "type": "uint256"
        }
      ],
      "name": "MetadataUpdate",
      "type": "event"
    },
    {
      "anonymous": false,
      "inputs": [
        {
          "indexed": true,
          "internalType": "bytes32",
          "name": "role",
          "type": "bytes32"
        },
        {
          "indexed": true,
          "internalType": "bytes32",
          "name": "previousAdminRole",
          "type": "bytes32"
        },
        {
          "indexed": true,
          "internalType": "bytes32",
          "name": "newAdminRole",
          "type": "bytes32"
        }
      ],
      "name": "RoleAdminChanged",
      "type": "event"
    },
    {
      "anonymous": false,
      "inputs": [
        {
          "indexed": true,
          "internalType": "bytes32",
          "name": "role",
          "type": "bytes32"
        },
        {
          "indexed": true,
          "internalType": "address",
          "name": "account",
          "type": "address"
        },
        {
          "indexed": true,
          "internalType": "address",
          "name": "sender",
          "type": "address"
        }
      ],
      "name": "RoleGranted",
      "type": "event"
    },
    {
      "anonymous": false,
      "inputs": [
        {
          "indexed": true,
          "internalType": "bytes32",
          "name": "role",
          "type": "bytes32"
        },
        {
          "indexed": true,
          "internalType": "address",
          "name": "account",
          "type": "address"
        },
        {
          "indexed": true,
          "internalType": "address",
          "name": "sender",
          "type": "address"
        }
      ],
      "name": "RoleRevoked",
      "type": "event"
    },
    {
      "anonymous": false,
      "inputs": [
        {
          "indexed": true,
          "internalType": "address",
          "name": "from",
          "type": "address"
        },
        {
          "indexed": true,
          "internalType": "address",
          "name": "to",
          "type": "address"
        },
        {
          "indexed": true,
          "internalType": "uint256",
          "name": "tokenId",
          "type": "uint256"
        }
      ],
      "name": "Transfer",
      "type": "event"
    },
    {
      "inputs": [],
      "name": "DEFAULT_ADMIN_ROLE",
      "outputs": [
        {
          "internalType": "bytes32",
          "name": "",
          "type": "bytes32"
        }
      ],
      "stateMutability": "view",
      "type": "function",
      "constant": true
    },
    {
      "inputs": [],
      "name": "MINTER_ROLE",
      "outputs": [
        {
          "internalType": "bytes32",
          "name": "",
          "type": "bytes32"
        }
      ],
      "stateMutability": "view",
      "type": "function",
      "constant": true
    },
    {
      "inputs": [
        {
          "internalType": "address",
          "name": "to",
          "type": "address"
        },
        {
          "internalType": "uint256",
          "name": "tokenId",
          "type": "uint256"
        }
      ],
      "name": "approve",
      "outputs": [],
      "stateMutability": "nonpayable",
      "type": "function"
    },
    {
      "inputs": [
        {
          "internalType": "address",
          "name": "owner",
          "type": "address"
        }
      ],
      "name": "balanceOf",
      "outputs": [
        {
          "internalType": "uint256",
          "name": "",
          "type": "uint256"
        }
      ],
      "stateMutability": "view",
      "type": "function",
      "constant": true
    },
    {
      "inputs": [
        {
          "internalType": "uint256",
          "name": "tokenId",
          "type": "uint256"
        }
      ],
      "name": "getApproved",
      "outputs": [
        {
          "internalType": "address",
          "name": "",
          "type": "address"
        }
      ],
      "stateMutability": "view",
      "type": "function",
      "constant": true
    },
    {
      "inputs": [
        {
          "internalType": "bytes32",
          "name": "role",
          "type": "bytes32"
        }
      ],
      "name": "getRoleAdmin",
      "outputs": [
        {
          "internalType": "bytes32",
          "name": "",
          "type": "bytes32"
        }
      ],
      "stateMutability": "view",
      "type": "function",
      "constant": true
    },
    {
      "inputs": [
        {
          "internalType": "bytes32",
          "name": "role",
          "type": "bytes32"
        },
        {
          "internalType": "address",
          "name": "account",
          "type": "address"
        }
      ],
      "name": "grantRole",
      "outputs": [],
      "stateMutability": "nonpayable",
      "type": "function"
    },
    {
      "inputs": [
        {
          "internalType": "bytes32",
          "name": "role",
          "type": "bytes32"
        },
        {
          "internalType": "address",
          "name": "account",
          "type": "address"
        }
      ],
      "name": "hasRole",
      "outputs": [
        {
          "internalType": "bool",
          "name": "",
          "type": "bool"
        }
      ],
      "stateMutability": "view",
      "type": "function",
      "constant": true
    },
    {
      "inputs": [
        {
          "internalType": "address",
          "name": "owner",
          "type": "address"
        },
        {
          "internalType": "address",
          "name": "operator",
          "type": "address"
        }
      ],
      "name": "isApprovedForAll",
      "outputs": [
        {
          "internalType": "bool",
          "name": "",
          "type": "bool"
        }
      ],
      "stateMutability": "view",
      "type": "function",
      "constant": true
    },
    {
      "inputs": [],
      "name": "name",
      "outputs": [
        {
          "internalType": "string",
          "name": "",
          "type": "string"
        }
      ],
      "stateMutability": "view",
      "type": "function",
      "constant": true
    },
    {
      "inputs": [
        {
          "internalType": "uint256",
          "name": "tokenId",
          "type": "uint256"
        }
      ],
      "name": "ownerOf",
      "outputs": [
        {
          "internalType": "address",
          "name": "",
          "type": "address"
        }
      ],
      "stateMutability": "view",
      "type": "function",
      "constant": true
    },
    {
      "inputs": [
        {
          "internalType": "bytes32",
          "name": "role",
          "type": "bytes32"
        },
        {
          "internalType": "address",
          "name": "callerConfirmation",
          "type": "address"
        }
      ],
      "name": "renounceRole",
      "outputs": [],
      "stateMutability": "nonpayable",
      "type": "function"
    },
    {
      "inputs": [
        {
          "internalType": "bytes32",
          "name": "role",
          "type": "bytes32"
        },
        {
          "internalType": "address",
          "name": "account",
          "type": "address"
        }
      ],
      "name": "revokeRole",
      "outputs": [],
      "stateMutability": "nonpayable",
      "type": "function"
    },
    {
      "inputs": [
        {
          "internalType": "address",
          "name": "from",
          "type": "address"
        },
        {
          "internalType": "address",
          "name": "to",
          "type": "address"
        },
        {
          "internalType": "uint256",
          "name": "tokenId",
          "type": "uint256"
        }
      ],
      "name": "safeTransferFrom",
      "outputs": [],
      "stateMutability": "nonpayable",
      "type": "function"
    },
    {
      "inputs": [
        {
          "internalType": "address",
          "name": "from",
          "type": "address"
        },
        {
          "internalType": "address",
          "name": "to",
          "type": "address"
        },
        {
          "internalType": "uint256",
          "name": "tokenId",
          "type": "uint256"
        },
        {
          "internalType": "bytes",
          "name": "data",
          "type": "bytes"
        }
      ],
      "name": "safeTransferFrom",
      "outputs": [],
      "stateMutability": "nonpayable",
      "type": "function"
    },
    {
      "inputs": [
        {
          "internalType": "address",
          "name": "operator",
          "type": "address"
        },
        {
          "internalType": "bool",
          "name": "approved",
          "type": "bool"
        }
      ],
      "name": "setApprovalForAll",
      "outputs": [],
      "stateMutability": "nonpayable",
      "type": "function"
    },
    {
      "inputs": [],
      "name": "stakingContract",
      "outputs": [
        {
          "internalType": "address",
          "name": "",
          "type": "address"
        }
      ],
      "stateMutability": "view",
      "type": "function",
      "constant": true
    },
    {
      "inputs": [],
      "name": "symbol",
      "outputs": [
        {
          "internalType": "string",
          "name": "",
          "type": "string"
        }
      ],
      "stateMutability": "view",
      "type": "function",
      "constant": true
    },
    {
      "inputs": [
        {
          "internalType": "uint256",
          "name": "index",
          "type": "uint256"
        }
      ],
      "name": "tokenByIndex",
      "outputs": [
        {
          "internalType": "uint256",
          "name": "",
          "type": "uint256"
        }
      ],
      "stateMutability": "view",
      "type": "function",
      "constant": true
    },
    {
      "inputs": [
        {
          "internalType": "address",
          "name": "owner",
          "type": "address"
        },
        {
          "internalType": "uint256",
          "name": "index",
          "type": "uint256"
        }
      ],
      "name": "tokenOfOwnerByIndex",
      "outputs": [
        {
          "internalType": "uint256",
          "name": "",
          "type": "uint256"
        }
      ],
      "stateMutability": "view",
      "type": "function",
      "constant": true
    },
    {
      "inputs": [],
      "name": "totalSupply",
      "outputs": [
        {
          "internalType": "uint256",
          "name": "",
          "type": "uint256"
        }
      ],
      "stateMutability": "view",
      "type": "function",
      "constant": true
    },
    {
      "inputs": [
        {
          "internalType": "address",
          "name": "from",
          "type": "address"
        },
        {
          "internalType": "address",
          "name": "to",
          "type": "address"
        },
        {
          "internalType": "uint256",
          "name": "tokenId",
          "type": "uint256"
        }
      ],
      "name": "transferFrom",
      "outputs": [],
      "stateMutability": "nonpayable",
      "type": "function"
    },
    {
      "inputs": [
        {
          "internalType": "address",
          "name": "to",
          "type": "address"
        }
      ],
      "name": "safeMint",
      "outputs": [
        {
          "internalType": "string",
          "name": "",
          "type": "string"
        }
      ],
      "stateMutability": "nonpayable",
      "type": "function"
    },
    {
      "inputs": [],
      "name": "getAvailableNFTs",
      "outputs": [
        {
          "internalType": "string[]",
          "name": "",
          "type": "string[]"
        }
      ],
      "stateMutability": "view",
      "type": "function",
      "constant": true
    },
    {
      "inputs": [
        {
          "internalType": "uint256",
          "name": "tokenId",
          "type": "uint256"
        }
      ],
      "name": "tokenURI",
      "outputs": [
        {
          "internalType": "string",
          "name": "",
          "type": "string"
        }
      ],
      "stateMutability": "view",
      "type": "function",
      "constant": true
    },
    {
      "inputs": [
        {
          "internalType": "bytes4",
          "name": "interfaceId",
          "type": "bytes4"
        }
      ],
      "name": "supportsInterface",
      "outputs": [
        {
          "internalType": "bool",
          "name": "",
          "type": "bool"
        }
      ],
      "stateMutability": "view",
      "type": "function",
      "constant": true
    }
  ],
  "bytecode": "0x60806040523462000037576200001e6200001862000110565b62000ea4565b620000286200003d565b6132a3620012b982396132a390f35b62000043565b60405190565b5f80fd5b601f801991011690565b634e487b7160e01b5f52604160045260245ffd5b90620000719062000047565b810190811060018060401b038211176200008a57604052565b62000051565b90620000a76200009f6200003d565b928362000065565b565b5f80fd5b60018060a01b031690565b620000c390620000ad565b90565b620000d181620000b8565b03620000d957565b5f80fd5b90505190620000ec82620000c6565b565b906020828203126200010a5762000107915f01620000dd565b90565b620000a9565b620001336200455c80380380620001278162000090565b928339810190620000ee565b90565b60018060401b03811162000155576200015160209162000047565b0190565b62000051565b90620001716200016b8362000136565b62000090565b918252565b5f7f4469616d6f6e6400000000000000000000000000000000000000000000000000910152565b620001a960076200015b565b90620001b86020830162000176565b565b620001c46200019d565b90565b5f7f4469616d6f6e644e465400000000000000000000000000000000000000000000910152565b620001fa600a6200015b565b906200020960208301620001c7565b565b62000215620001ee565b90565b634e487b7160e01b5f525f60045260245ffd5b634e487b7160e01b5f52602260045260245ffd5b906001600283049216801562000262575b60208310146200025c57565b6200022b565b91607f169162000250565b5f5260205f2090565b601f602091010490565b1b90565b91906008620002a39102916200029c5f198462000280565b9262000280565b9181191691161790565b90565b90565b620002cc620002c6620002d292620002ad565b620002b0565b620002ad565b90565b90565b9190620002f3620002ed620002fc93620002b3565b620002d5565b90835462000284565b9055565b5f90565b6200031a916200031362000300565b91620002d8565b565b5b81811062000329575050565b80620003385f60019362000304565b016200031d565b9190601f811162000350575b505050565b6200035f6200038a936200026d565b9060206200036d8462000276565b8301931062000393575b620003829062000276565b01906200031c565b5f80806200034b565b9150620003828192905062000377565b6001620003ee7f626a376b686d6733696367667877347473713676736f72706b7361000000000092620003e4603b620003dd83546200023f565b836200033f565b607781556200026d565b7f6261667962656967776a366f66743465673578676261356a66613736327166665f8201550155565b6200042290620003a3565b565b60018060401b038111620004385760200290565b62000051565b6200044d620004539162000424565b62000090565b90565b5f7f6164612e706e6700000000000000000000000000000000000000000000000000910152565b6200048960076200015b565b90620004986020830162000456565b565b620004a46200047d565b90565b52565b5f7f64796d6b612e706e670000000000000000000000000000000000000000000000910152565b620004dd60096200015b565b90620004ec60208301620004aa565b565b620004f8620004d1565b90565b5f7f69737261656c692e706e67000000000000000000000000000000000000000000910152565b6200052e600b6200015b565b906200053d60208301620004fb565b565b6200054962000522565b90565b5f7f6b7261736f746159726f647374766f2e706e6700000000000000000000000000910152565b6200057f60136200015b565b906200058e602083016200054c565b565b6200059a62000573565b90565b5f7f6d626d2e706e6700000000000000000000000000000000000000000000000000910152565b620005d060076200015b565b90620005df602083016200059d565b565b620005eb620005c4565b90565b5f7f6d6f7573652e706e670000000000000000000000000000000000000000000000910152565b6200062160096200015b565b906200063060208301620005ee565b565b6200063c62000615565b90565b5f7f726f64656f2e706e670000000000000000000000000000000000000000000000910152565b6200067260096200015b565b9062000681602083016200063f565b565b6200068d62000666565b90565b90565b5490565b634e487b7160e01b5f52601160045260245ffd5b600190818003010490565b5f5260205f2090565b5f5260205f2090565b1c90565b90620006e1905f1990602003600802620006c8565b8154169055565b90620006fa905f1990600802620006c8565b191690565b816200070b91620006e8565b906002021790565b905f916200072e6200072582620006bf565b928354620006ff565b905555565b919290602082105f146200079957601f841160011462000760576200075a929350620006ff565b90555b5b565b50906200078d62000793936001620007836200077c85620006bf565b9262000276565b820191016200031c565b62000713565b6200075d565b50620007d98293620007ad600194620006bf565b620007d1620007bc8562000276565b820192601f861680620007e5575b5062000276565b01906200031c565b6002021790556200075e565b620007f390888603620006cc565b5f620007ca565b92909168010000000000000000821162000863576020115f146200085357602081105f1462000834576200082e91620006ff565b90555b5b565b60019160ff19166200084684620006bf565b5560020201905562000831565b6001915060020201905562000832565b62000051565b90815462000877816200023f565b90818311620008a5575b81831062000890575b50505050565b6200089b9362000733565b5f8080806200088a565b620008b383838387620007fa565b62000881565b5f620008c59162000869565b565b905f03620008dc57620008da90620008b9565b565b62000218565b5b818110620008ef575050565b80620008fe5f600193620008c7565b01620008e3565b909182811062000915575b505050565b6200093a620009336200092c6200094695620006ab565b92620006ab565b92620006b6565b918201910190620008e2565b5f808062000910565b906801000000000000000081116200097d5781620009716200097b9362000693565b9082815562000905565b565b62000051565b50600790565b5190565b5190565b9190601f8111620009a2575b505050565b620009b1620009dc93620006bf565b906020620009bf8462000276565b83019310620009e5575b620009d49062000276565b01906200031c565b5f80806200099d565b9150620009d481929050620009c9565b9062000a01816200098d565b9060018060401b03821162000ad25762000a288262000a2185546200023f565b8562000991565b602090601f831160011462000a615791809162000a4f935f9262000a54575b5050620006ff565b90555b565b90915001515f8062000a47565b601f1983169162000a7285620006bf565b925f5b81811062000ab95750916002939185600196941062000a9c575b5050500201905562000a52565b62000aae910151601f841690620006e8565b90555f808062000a8f565b9193602060018192878701518155019501920162000a75565b62000051565b9062000ae491620009f5565b565b62000b1362000b0c62000af98462000983565b9362000b0685856200094f565b62000690565b91620006b6565b5f915b83831062000b245750505050565b600160208262000b4062000b39849562000989565b8662000ad8565b0192019201919062000b16565b9062000b599162000ae6565b565b90565b90565b5f1b90565b62000b7f62000b7962000b859262000b5b565b62000b61565b62000b5e565b90565b62000b935f62000b66565b90565b7f9f2df0fed2c77648de5860a4cc508cd0818c85b8b8a1ab4ceeef8d981c8956a690565b62000bd362000bcd62000bd99262000b5b565b620002b0565b620002ad565b90565b62000be790620002ad565b5f19811462000bf65760010190565b62000697565b634e487b7160e01b5f52603260045260245ffd5b62000c1b8162000693565b82101562000c385762000c30600191620006b6565b910201905f90565b62000bfc565b905090565b905f929180549062000c6162000c59836200023f565b809462000c3e565b916001811690815f1462000cba575060011462000c7e575b505050565b62000c8d9192939450620006bf565b5f905b83821062000ca557505001905f808062000c79565b60018160209254848601520191019062000c90565b92949550505060ff191682528015150201905f808062000c79565b7f2f000000000000000000000000000000000000000000000000000000000000009052565b62000d0d60019162000d20949362000c43565b62000d188162000cd5565b019062000c43565b90565b62000d47929162000d549162000d386200003d565b94859260208401928362000cfa565b9081038252038362000065565b565b90565b5f5260205f2090565b5490565b62000d718162000d62565b82101562000d8e5762000d8660019162000d59565b910201905f90565b62000bfc565b919062000da85762000da691620009f5565b565b62000218565b908154916801000000000000000083101562000de3578262000dda91600162000de19501815562000d66565b9062000d94565b565b62000051565b90565b62000dfb62000e0191620002ad565b62000de9565b9052565b62000e1862000e20916020949362000c43565b809262000dec565b0190565b62000e3c62000e326200003d565b9283928362000e05565b03902090565b62000e4d9162000e24565b90565b9062000e5e60ff9162000b61565b9181191691161790565b151590565b62000e789062000e68565b90565b90565b9062000e9862000e9262000ea09262000e6d565b62000e7b565b825462000e50565b9055565b62000fba9062000ec862000eb7620001ba565b62000ec16200020b565b90620010a4565b62000ed4600d62000417565b62000f9362000ee460076200043e565b62000efb62000ef26200049a565b5f8301620004a7565b62000f1362000f09620004ee565b60208301620004a7565b62000f2b62000f216200053f565b60408301620004a7565b62000f4362000f3962000590565b60608301620004a7565b62000f5b62000f51620005e1565b60808301620004a7565b62000f7362000f6962000632565b60a08301620004a7565b62000f8b62000f8162000683565b60c08301620004a7565b600e62000b4d565b62000fa962000fa162000b88565b82906200117c565b5062000fb462000b96565b6200117c565b5062000fc65f62000bba565b5b8062000fe962000fe262000fdc600e62000693565b620002ad565b91620002ad565b101562001033576200102d906200102762001015600d6200100d600e859062000c10565b509062000d23565b62001021600c62000d56565b62000dae565b62000bdc565b62000fc7565b506200103f5f62000bba565b5b80620010626200105b62001055600c62000693565b620002ad565b91620002ad565b1015620010a1576200109b90620010955f6200108f601062001087600c869062000c10565b509062000e42565b62000e7e565b62000bdc565b62001040565b50565b90620010b091620010b2565b565b90620010be91620010c0565b565b90620010cc91620010ce565b565b90620010da91620010dc565b565b90620010ed620010f5925f62000ad8565b600162000ad8565b565b5f90565b620011069062000b5e565b90565b906200111590620010fb565b5f5260205260405f2090565b6200113a620011346200114092620000ad565b620002b0565b620000ad565b90565b6200114e9062001121565b90565b6200115c9062001143565b90565b906200116b9062001151565b5f5260205260405f2090565b5f0190565b62001186620010f7565b506200119f6200119882849062001273565b1562000e68565b5f146200123b57620011ce6001620011c85f620011bf600b869062001109565b0185906200115f565b62000e7e565b90620011d9620012a9565b906200121c620012156200120e7f2f8788117e7eff1d82e926ec794901d17c78024a50270940304540a733656f0d95620010fb565b9262001151565b9262001151565b92620012276200003d565b80620012338162001177565b0390a4600190565b50505f90565b5f1c90565b60ff1690565b6200125b620012619162001241565b62001246565b90565b6200127090546200124c565b90565b620012a2915f620012956200129c936200128c620010f7565b50600b62001109565b016200115f565b62001264565b90565b5f90565b620012b3620012a5565b50339056fe60806040526004361015610013575b610d63565b61001d5f356101bc565b806301ffc9a7146101b757806306fdde03146101b2578063081812fc146101ad578063095ea7b3146101a857806318160ddd146101a357806323b872dd1461019e578063248a9ca3146101995780632f2ff15d146101945780632f745c591461018f57806332702c951461018a57806336568abe1461018557806340d097c31461018057806342842e0e1461017b5780634f6ccce7146101765780636352211e1461017157806370a082311461016c57806391d148541461016757806395d89b4114610162578063a217fddf1461015d578063a22cb46514610158578063b88d4fde14610153578063c87b56dd1461014e578063d539139314610149578063d547741f14610144578063e985e9c51461013f5763ee99205c0361000e57610d2e565b610cb4565b610c53565b610c1e565b610bba565b610b83565b610a0f565b61098a565b61091a565b6108e4565b6108af565b61087a565b610845565b610811565b6107dc565b61078a565b610755565b610640565b61060c565b6105aa565b610510565b6104a1565b61044b565b6103c1565b61030f565b610248565b60e01c90565b60405190565b5f80fd5b5f80fd5b5f80fd5b63ffffffff60e01b1690565b6101e9816101d4565b036101f057565b5f80fd5b90503590610201826101e0565b565b9060208282031261021c57610219915f016101f4565b90565b6101cc565b151590565b61022f90610221565b9052565b9190610246905f60208501940190610226565b565b346102785761027461026361025e366004610203565b6130db565b61026b6101c2565b91829182610233565b0390f35b6101c8565b5f91031261028757565b6101cc565b5190565b60209181520190565b5f5b8381106102ab575050905f910152565b80602091830151818501520161029b565b601f801991011690565b6102e56102ee6020936102f3936102dc8161028c565b93848093610290565b95869101610299565b6102bc565b0190565b61030c9160208201915f8184039101526102c6565b90565b3461033f5761031f36600461027d565b61033b61032a611340565b6103326101c2565b918291826102f7565b0390f35b6101c8565b90565b61035081610344565b0361035757565b5f80fd5b9050359061036882610347565b565b9060208282031261038357610380915f0161035b565b90565b6101cc565b60018060a01b031690565b61039c90610388565b90565b6103a890610393565b9052565b91906103bf905f6020850194019061039f565b565b346103f1576103ed6103dc6103d736600461036a565b611381565b6103e46101c2565b918291826103ac565b0390f35b6101c8565b6103ff81610393565b0361040657565b5f80fd5b90503590610417826103f6565b565b9190604083820312610441578061043561043e925f860161040a565b9360200161035b565b90565b6101cc565b5f0190565b3461047a5761046461045e366004610419565b9061136b565b61046c6101c2565b8061047681610446565b0390f35b6101c8565b61048890610344565b9052565b919061049f905f6020850194019061047f565b565b346104d1576104b136600461027d565b6104cd6104bc611962565b6104c46101c2565b9182918261048c565b0390f35b6101c8565b909160608284031261050b576105086104f1845f850161040a565b936104ff816020860161040a565b9360400161035b565b90565b6101cc565b3461053f576105296105233660046104d6565b91611426565b6105316101c2565b8061053b81610446565b0390f35b6101c8565b90565b61055081610544565b0361055757565b5f80fd5b9050359061056882610547565b565b9060208282031261058357610580915f0161055b565b90565b6101cc565b61059190610544565b9052565b91906105a8905f60208501940190610588565b565b346105da576105d66105c56105c036600461056a565b610e58565b6105cd6101c2565b91829182610595565b0390f35b6101c8565b919060408382031261060757806105fb610604925f860161055b565b9360200161040a565b90565b6101cc565b3461063b5761062561061f3660046105df565b90610ea4565b61062d6101c2565b8061063781610446565b0390f35b6101c8565b346106715761066d61065c610656366004610419565b906118f0565b6106646101c2565b9182918261048c565b0390f35b6101c8565b5190565b60209181520190565b60200190565b60209181520190565b6106b16106ba6020936106bf936106a88161028c565b93848093610689565b95869101610299565b6102bc565b0190565b906106cd91610692565b90565b60200190565b906106ea6106e383610676565b809261067a565b90816106fb60208302840194610683565b925f915b83831061070e57505050505090565b9091929394602061073061072a838560019503875289516106c3565b976106d0565b93019301919392906106ff565b6107529160208201915f8184039101526106d6565b90565b346107855761076536600461027d565b6107816107706123c9565b6107786101c2565b9182918261073d565b0390f35b6101c8565b346107b9576107a361079d3660046105df565b90610f5f565b6107ab6101c2565b806107b581610446565b0390f35b6101c8565b906020828203126107d7576107d4915f0161040a565b90565b6101cc565b3461080c576108086107f76107f23660046107be565b611fe4565b6107ff6101c2565b918291826102f7565b0390f35b6101c8565b346108405761082a6108243660046104d6565b91611520565b6108326101c2565b8061083c81610446565b0390f35b6101c8565b346108755761087161086061085b36600461036a565b6119e3565b6108686101c2565b9182918261048c565b0390f35b6101c8565b346108aa576108a661089561089036600461036a565b611218565b61089d6101c2565b918291826103ac565b0390f35b6101c8565b346108df576108db6108ca6108c53660046107be565b6111a7565b6108d26101c2565b9182918261048c565b0390f35b6101c8565b34610915576109116109006108fa3660046105df565b90610e06565b6109086101c2565b91829182610233565b0390f35b6101c8565b3461094a5761092a36600461027d565b610946610935611355565b61093d6101c2565b918291826102f7565b0390f35b6101c8565b90565b5f1b90565b61096b6109666109709261094f565b610952565b610544565b90565b61097c5f610957565b90565b610987610973565b90565b346109ba5761099a36600461027d565b6109b66109a561097f565b6109ad6101c2565b91829182610595565b0390f35b6101c8565b6109c881610221565b036109cf57565b5f80fd5b905035906109e0826109bf565b565b9190604083820312610a0a57806109fe610a07925f860161040a565b936020016109d3565b90565b6101cc565b34610a3e57610a28610a223660046109e2565b906113a0565b610a306101c2565b80610a3a81610446565b0390f35b6101c8565b5f80fd5b5f80fd5b634e487b7160e01b5f52604160045260245ffd5b90610a69906102bc565b810190811067ffffffffffffffff821117610a8357604052565b610a4b565b90610a9b610a946101c2565b9283610a5f565b565b67ffffffffffffffff8111610abb57610ab76020916102bc565b0190565b610a4b565b90825f939282370152565b90929192610ae0610adb82610a9d565b610a88565b93818552602085019082840111610afc57610afa92610ac0565b565b610a47565b9080601f83011215610b1f57816020610b1c93359101610acb565b90565b610a43565b90608082820312610b7e57610b3b815f840161040a565b92610b49826020850161040a565b92610b57836040830161035b565b92606082013567ffffffffffffffff8111610b7957610b769201610b01565b90565b6101d0565b6101cc565b34610bb557610b9f610b96366004610b24565b92919091611536565b610ba76101c2565b80610bb181610446565b0390f35b6101c8565b34610bea57610be6610bd5610bd036600461036a565b612a51565b610bdd6101c2565b918291826102f7565b0390f35b6101c8565b7f9f2df0fed2c77648de5860a4cc508cd0818c85b8b8a1ab4ceeef8d981c8956a690565b610c1b610bef565b90565b34610c4e57610c2e36600461027d565b610c4a610c39610c13565b610c416101c2565b91829182610595565b0390f35b6101c8565b34610c8257610c6c610c663660046105df565b90610f53565b610c746101c2565b80610c7e81610446565b0390f35b6101c8565b9190604083820312610caf5780610ca3610cac925f860161040a565b9360200161040a565b90565b6101cc565b34610ce557610ce1610cd0610cca366004610c87565b906113cc565b610cd86101c2565b91829182610233565b0390f35b6101c8565b1c90565b60018060a01b031690565b610d09906008610d0e9302610cea565b610cee565b90565b90610d1c9154610cf9565b90565b610d2b60125f90610d11565b90565b34610d5e57610d3e36600461027d565b610d5a610d49610d1f565b610d516101c2565b918291826103ac565b0390f35b6101c8565b5f80fd5b5f90565b610d7490610544565b90565b90610d8190610d6b565b5f5260205260405f2090565b90565b610da4610d9f610da992610388565b610d8d565b610388565b90565b610db590610d90565b90565b610dc190610dac565b90565b90610dce90610db8565b5f5260205260405f2090565b5f1c90565b60ff1690565b610df1610df691610dda565b610ddf565b90565b610e039054610de5565b90565b610e2d915f610e22610e2893610e1a610d67565b50600b610d77565b01610dc4565b610df9565b90565b5f90565b90565b610e43610e4891610dda565b610e34565b90565b610e559054610e37565b90565b6001610e71610e7792610e69610e30565b50600b610d77565b01610e4b565b90565b90610e9591610e90610e8b82610e58565b610eb0565b610e97565b565b90610ea191610ff3565b50565b90610eae91610e7a565b565b610ec290610ebc611cec565b90610ee7565b565b916020610ee5929493610ede60408201965f83019061039f565b0190610588565b565b90610efc610ef6838390610e06565b15610221565b610f04575050565b610f25610f0f6101c2565b92839263e2517d3f60e01b845260048401610ec4565b0390fd5b90610f4491610f3f610f3a82610e58565b610eb0565b610f46565b565b90610f509161109f565b50565b90610f5d91610f29565b565b9080610f7a610f74610f6f611cec565b610393565b91610393565b03610f8b57610f889161109f565b50565b610f936101c2565b63334bd91960e11b815280610faa60048201610446565b0390fd5b90610fba60ff91610952565b9181191691161790565b610fcd90610221565b90565b90565b90610fe8610fe3610fef92610fc4565b610fd0565b8254610fae565b9055565b610ffb610d67565b5061101061100a828490610e06565b15610221565b5f146110995761103860016110335f61102b600b8690610d77565b018590610dc4565b610fd3565b90611041611cec565b9061107e6110786110727f2f8788117e7eff1d82e926ec794901d17c78024a50270940304540a733656f0d95610d6b565b92610db8565b92610db8565b926110876101c2565b8061109181610446565b0390a4600190565b50505f90565b6110a7610d67565b506110b3818390610e06565b5f1461113b576110da5f6110d55f6110cd600b8690610d77565b018590610dc4565b610fd3565b906110e3611cec565b9061112061111a6111147ff6391f5c32d9c69d2a47ea670b442974b53935d1edc7fd64eb21e047a839171b95610d6b565b92610db8565b92610db8565b926111296101c2565b8061113381610446565b0390a4600190565b50505f90565b5f90565b61115961115461115e9261094f565b610d8d565b610388565b90565b61116a90611145565b90565b9061117790610db8565b5f5260205260405f2090565b90565b61119261119791610dda565b611183565b90565b6111a49054611186565b90565b6111af611141565b50806111cb6111c56111c05f611161565b610393565b91610393565b146111e6576111de6111e391600361116d565b61119a565b90565b6112106111f25f611161565b6111fa6101c2565b9182916322718ad960e21b8352600483016103ac565b0390fd5b5f90565b61122a90611224611214565b50611825565b90565b606090565b634e487b7160e01b5f52602260045260245ffd5b9060016002830492168015611266575b602083101461126157565b611232565b91607f1691611256565b5f5260205f2090565b905f929180549061129361128c83611246565b8094610689565b916001811690815f146112ea57506001146112ae575b505050565b6112bb9192939450611270565b915f925b8184106112d257505001905f80806112a9565b600181602092959395548486015201910192906112bf565b92949550505060ff19168252151560200201905f80806112a9565b9061130f91611279565b90565b9061133261132b926113226101c2565b93848092611305565b0383610a5f565b565b61133d90611312565b90565b61134861122d565b506113525f611334565b90565b61135d61122d565b506113686001611334565b90565b9061137f9190611379611cec565b916115ce565b565b61139d9061138d611214565b5061139781611825565b506115af565b90565b6113b4916113ac611cec565b91909161176d565b565b906113c090610db8565b5f5260205260405f2090565b6113f1916113e76113ec926113df610d67565b5060056113b6565b610dc4565b610df9565b90565b60409061141d611424949695939661141360608401985f85019061039f565b602083019061047f565b019061039f565b565b91908061144361143d6114385f611161565b610393565b91610393565b146114a15761145b9082611455611cec565b916123df565b918261146f61146983610393565b91610393565b0361147957505050565b61149d9091926114876101c2565b9384936364283d7b60e01b8552600485016113f4565b0390fd5b6114cb6114ad5f611161565b6114b56101c2565b918291633250574960e11b8352600483016103ac565b0390fd5b67ffffffffffffffff81116114ed576114e96020916102bc565b0190565b610a4b565b906115046114ff836114cf565b610a88565b918252565b6115125f6114f2565b90565b61151d611509565b90565b91611534929161152e611515565b92611536565b565b9161155a939161154884828491611426565b611550611cec565b9390919293611b8a565b565b61157061156b61157592610344565b610d8d565b610344565b90565b906115829061155c565b5f5260205260405f2090565b61159a61159f91610dda565b610cee565b90565b6115ac905461158e565b90565b6115c66115cb916115be611214565b506004611578565b6115a2565b90565b916115dc929160019261161c565b565b906115ef60018060a01b0391610952565b9181191691161790565b90565b9061161161160c61161892610db8565b6115f9565b82546115de565b9055565b91909280801561174a575b611645575b50509061163e61164392916004611578565b6115fc565b565b61164e84611825565b918061166a61166461165f5f611161565b610393565b91610393565b14158061172f575b80611715575b6116ef57509161163e916116439493611694575b50919261162c565b8184906116d36116cd6116c77f8c5be1e5ebec7d5bd14f71427d1e84f3dd0314c0f7b2291e5b200ac8c7c3b92595610db8565b92610db8565b9261155c565b926116dc6101c2565b806116e681610446565b0390a45f61168c565b611711906116fb6101c2565b91829163a9fbf51f60e01b8352600483016103ac565b0390fd5b5061172a6117248483906113cc565b15610221565b611678565b508261174361173d83610393565b91610393565b1415611672565b508161176661176061175b5f611161565b610393565b91610393565b1415611627565b9190918261178b6117856117805f611161565b610393565b91610393565b146117ff576117af826117aa6117a3600585906113b6565b8690610dc4565b610fd3565b9190916117fa6117e86117e27f17307eab39ab6107e8899845ad3d59bd9653f200f220920489ca2b5937696c3193610db8565b93610db8565b936117f16101c2565b91829182610233565b0390a3565b6118218361180b6101c2565b918291630b61174360e31b8352600483016103ac565b0390fd5b61182d611214565b5061183781611882565b908161185361184d6118485f611161565b610393565b91610393565b1461185c575090565b61187e906118686101c2565b918291637e27328960e01b83526004830161048c565b0390fd5b61189961189e91611891611214565b506002611578565b6115a2565b90565b9160206118c29294936118bb60408201965f83019061039f565b019061047f565b565b906118ce90610db8565b5f5260205260405f2090565b906118e49061155c565b5f5260205260405f2090565b6118f8611141565b508161191461190e611909846111a7565b610344565b91610344565b1015611939576119369161192c6119319260066118c4565b6118da565b61119a565b90565b61195a6119446101c2565b92839263295f44f760e21b8452600484016118a1565b0390fd5b5490565b61196a611141565b50611975600861195e565b90565b634e487b7160e01b5f52603260045260245ffd5b5f5260205f2090565b61199e8161195e565b8210156119b8576119b060019161198c565b910201905f90565b611978565b6119cd9060086119d29302610cea565b611183565b90565b906119e091546119bd565b90565b6119eb611141565b5080611a06611a006119fb611962565b610344565b91610344565b1015611a2357611a1a611a20916008611995565b906119d5565b90565b611a2c5f611161565b611a4d611a376101c2565b92839263295f44f760e21b8452600484016118a1565b0390fd5b611a65611a60611a6a9261094f565b610d8d565b610344565b90565b611a7690610d90565b90565b611a8290611a6d565b90565b611a8e90610dac565b90565b60e01b90565b90505190611aa4826101e0565b565b90602082820312611abf57611abc915f01611a97565b90565b6101cc565b5190565b60209181520190565b611af0611af9602093611afe93611ae781611ac4565b93848093611ac8565b95869101610299565b6102bc565b0190565b9092611b3590611b2b611b429694611b2160808601975f87019061039f565b602085019061039f565b604083019061047f565b6060818403910152611ad1565b90565b90611b57611b5283610a9d565b610a88565b918252565b606090565b3d5f14611b7c57611b713d611b45565b903d5f602084013e5b565b611b84611b5c565b90611b7a565b9193843b611ba0611b9a5f611a51565b91610344565b11611bad575b5050505050565b611be55f602094611bf0611bc8611bc38a611a79565b611a85565b9463150b7a02929698611bd96101c2565b998a9889978896611a91565b865260048601611b02565b03925af180915f92611cbc575b50155f14611c7257506001611c1857505b5f80808080611ba6565b611c20611b61565b90611c2a82611ac4565b611c3c611c365f611a51565b91610344565b145f14611c6957611c6590611c4f6101c2565b918291633250574960e11b8352600483016103ac565b0390fd5b50602081519101fd5b611c8b611c85630a85bd0160e11b6101d4565b916101d4565b03611c965750611c0e565b611cb890611ca26101c2565b918291633250574960e11b8352600483016103ac565b0390fd5b611cde91925060203d8111611ce5575b611cd68183610a5f565b810190611aa6565b905f611bfd565b503d611ccc565b611cf4611214565b503390565b90611d1391611d0e611d09610bef565b610eb0565b611ede565b90565b5490565b5f7f4e6f204e46547320696e697469616c697a656400000000000000000000000000910152565b611d4e6013602092610290565b611d5781611d1a565b0190565b611d709060208101905f818303910152611d41565b90565b15611d7a57565b611d826101c2565b62461bcd60e51b815280611d9860048201611d5b565b0390fd5b634e487b7160e01b5f52601160045260245ffd5b611db990610344565b5f198114611dc75760010190565b611d9c565b5f5260205f2090565b611dde81611d16565b821015611df857611df0600191611dcc565b910201905f90565b611978565b90611e0790610db8565b5f5260205260405f2090565b905090565b611e3d611e3492602092611e2b8161028c565b94858093611e13565b93849101610299565b0190565b90565b611e50611e5591610344565b611e41565b9052565b611e69611e709160209493611e18565b8092611e44565b0190565b611e88611e7f6101c2565b92839283611e59565b03902090565b611e9791611e74565b90565b90611ea65f1991610952565b9181191691161790565b90565b90611ec8611ec3611ecf9261155c565b611eb0565b8254611e9a565b9055565b611edb611509565b90565b50611f04611eec600c611d16565b611efe611ef85f611a51565b91610344565b11611d73565b611f0d5f611a51565b5b80611f2a611f24611f1f600c611d16565b610344565b91610344565b1015611fd757611f45611f3f600c8390611dd5565b50611334565b611f6c611f66611f61611f5a60118790611dfd565b8490611e8e565b610df9565b15610221565b611f7f5750611f7a90611db0565b611f0e565b91611fd49150611fcd611f92600f61119a565b611fa5611f9e82611db0565b600f611eb3565b91611fc66001611fc1611fba60118590611dfd565b8890611e8e565b610fd3565b8290611ff8565b82906122e5565b90565b5050611fe1611ed3565b90565b611ff590611ff061122d565b611cf9565b90565b9061200c9190612006611515565b9161200e565b565b909161203a9261201f83829061203c565b612027611cec565b926120315f611161565b90919293611b8a565b565b908161205861205261204d5f611161565b610393565b91610393565b146120c057612071919061206b5f611161565b916123df565b61208b6120856120805f611161565b610393565b91610393565b0361209257565b6120bc61209e5f611161565b6120a66101c2565b9182916339e3563760e11b8352600483016103ac565b0390fd5b6120ea6120cc5f611161565b6120d46101c2565b918291633250574960e11b8352600483016103ac565b0390fd5b906120f89061155c565b5f5260205260405f2090565b601f602091010490565b1b90565b9190600861212d9102916121275f198461210e565b9261210e565b9181191691161790565b919061214d6121486121559361155c565b611eb0565b908354612112565b9055565b61216b91612165611141565b91612137565b565b5b818110612179575050565b806121865f600193612159565b0161216e565b9190601f811161219c575b505050565b6121a86121cd93611270565b9060206121b484612104565b830193106121d5575b6121c690612104565b019061216d565b5f8080612197565b91506121c6819290506121bd565b906121f3905f1990600802610cea565b191690565b81612202916121e3565b906002021790565b906122148161028c565b9067ffffffffffffffff82116122d457612238826122328554611246565b8561218c565b602090601f831160011461226c5791809161225b935f92612260575b50506121f8565b90555b565b90915001515f80612254565b601f1983169161227b85611270565b925f5b8181106122bc575091600293918560019694106122a2575b5050500201905561225e565b6122b2910151601f8416906121e3565b90555f8080612296565b9193602060018192878701518155019501920161227e565b610a4b565b906122e39161220a565b565b906122fb906122f6600a84906120ee565b6122d9565b6123317ff8e1a15aba9398e019f0b49df1a4fde98ee17ae345cb5f6b5e2c27f5033e8ce7916123286101c2565b9182918261048c565b0390a1565b606090565b67ffffffffffffffff81116123535760208091020190565b610a4b565b9061236a6123658361233b565b610a88565b918252565b9061237982611d16565b61238281612358565b926123906020850191611dcc565b5f915b8383106123a05750505050565b6001602081926123af85611334565b815201920192019190612393565b6123c69061236f565b90565b6123d1612336565b506123dc600c6123bd565b90565b916123f5926123ec611214565b509190916123f8565b90565b909161241190612406611214565b508290849091612507565b918261242d6124276124225f611161565b610393565b91610393565b145f1461249e5761243d81612896565b5b8161245961245361244e5f611161565b610393565b91610393565b145f1461246e5761246a91506129ba565b5b90565b8261248161247b84610393565b91610393565b0361248e575b505061246b565b612497916127d7565b5f80612487565b826124b16124ab84610393565b91610393565b036124bc575b61243e565b6124c78382906128c9565b6124b7565b90565b6124e36124de6124e8926124cc565b610d8d565b610344565b90565b906124f69103610344565b90565b906125049101610344565b90565b90612510611214565b5061251a81611882565b928061253661253061252b5f611161565b610393565b91610393565b03612675575b508261255861255261254d5f611161565b610393565b91610393565b03612621575b8161257961257361256e5f611161565b610393565b91610393565b036125eb575b6125948261258f60028490611578565b6115fc565b82916125d26125cc6125c67fddf252ad1be2c89b69c2b068fc378daa952ba7f163c4a11628f55a4df523b3ef95610db8565b92610db8565b9261155c565b926125db6101c2565b806125e581610446565b0390a490565b61261c6125f860016124cf565b6126166126076003869061116d565b916126118361119a565b6124f9565b90611eb3565b61257f565b61263f61262d5f611161565b826126375f611161565b905f9261161c565b61267061264c60016124cf565b61266a61265b6003879061116d565b916126658361119a565b6124eb565b90611eb3565b61255e565b6126829084908391612688565b5f61253c565b61269d61269782848691612712565b15610221565b6126a657505050565b6126c06126ba6126b55f611161565b610393565b91610393565b145f146126ed576126e9826126d36101c2565b918291637e27328960e01b83526004830161048c565b0390fd5b61270e6126f86101c2565b92839263177e802f60e01b8452600484016118a1565b0390fd5b919061271c610d67565b508061273861273261272d5f611161565b610393565b91610393565b14159283612747575b50505090565b809192935061275e61275884610393565b91610393565b149081156127a0575b5091821561277a575b50505f8080612741565b61279891925061278c612792916115af565b92610393565b91610393565b145f80612770565b6127ac915082906113cc565b5f612767565b6127c16127c791939293610344565b92610344565b82039182116127d257565b611d9c565b906128226128279261281a6127fe6127ee836111a7565b6127f860016124cf565b906127b2565b9161281561280e869260066118c4565b84906118da565b611eb3565b9160076118da565b611eb3565b565b90565b5f5260205f2090565b5490565b61284281612835565b82101561285c5761285460019161282c565b910201905f90565b611978565b9081549168010000000000000000831015612891578261288991600161288f95018155612839565b90612137565b565b610a4b565b6128c7906128b86128a7600861195e565b6128b3600984906118da565b611eb3565b6128c26008612829565b612861565b565b61292e612933925f92612929846129246128e2846111a7565b946129026128fa6128f5600784906118da565b61119a565b9560066118c4565b948061291661291089610344565b91610344565b03612935575b5060076118da565b612159565b6118da565b612159565b565b6129719061296c61294f61294a898b906118da565b61119a565b916129648361295f8b84906118da565b611eb3565b9160076118da565b611eb3565b5f61291c565b634e487b7160e01b5f52603160045260245ffd5b61299481612835565b80156129b55760019003906129b26129ac8383612839565b90612159565b55565b612977565b5f612a38612a3d92612a316129e26129d2600861195e565b6129dc60016124cf565b906127b2565b612a2c612a0d612a076129ff6129fa600988906118da565b61119a565b936008611995565b906119d5565b91612a2483612a1e60088490611995565b90612137565b9160096118da565b611eb3565b60096118da565b612159565b612a4f612a4a6008612829565b61298b565b565b612a6390612a5d61122d565b50612aad565b90565b90565b612a7790612a7d9392611e18565b90611e18565b90565b612a9f9291612aab91612a916101c2565b948592602084019283612a69565b90810382520383610a5f565b565b612ab561122d565b50612abf81611825565b50612ad4612acf600a83906120ee565b611334565b612adc612bb9565b612aed612ae882612a66565b611ac4565b612aff612af95f611a51565b91610344565b14612b4757612b15612b1083612a66565b611ac4565b612b27612b215f611a51565b91610344565b11612b3a575050612b3790612b4d565b90565b612b449250612a80565b90565b50905090565b612b5561122d565b50612b5f81611825565b50612b68612bb9565b90612b7a612b7583612a66565b611ac4565b612b8c612b865f611a51565b91610344565b115f14612baa57612ba0612ba69291612c5d565b90612a80565b5b90565b5050612bb4611ed3565b612ba7565b612bc161122d565b50612bca611ed3565b90565b369037565b90612bf7612bdf836114f2565b92602080612bed86936114cf565b9201910390612bcd565b565b6001612c059103610344565b90565b90565b612c1f612c1a612c2492612c08565b610d8d565b610344565b90565b634e487b7160e01b5f52601260045260245ffd5b612c47612c4d91610344565b91610344565b908115612c58570490565b612c27565b612c6561122d565b50612c82612c7282612e7a565b612c7c60016124cf565b906124f9565b90612c8c82612bd2565b91612c95611141565b5060208301015b600115612cff57612caf612cdb91612bf9565b916f181899199a1a9b1b9c1cb0b131b232b360811b600a82061a8353612cd5600a612c0b565b90612c3b565b80612cee612ce85f611a51565b91610344565b14612cf95790612c9c565b50505b90565b5050612cfc565b90565b612d1d612d18612d2292612d06565b610d8d565b610344565b90565b90565b612d3c612d37612d4192612d25565b610d8d565b610344565b90565b90565b612d5b612d56612d6092612d44565b610d8d565b610344565b90565b90565b612d7a612d75612d7f92612d63565b610d8d565b610344565b90565b90565b612d99612d94612d9e92612d82565b610d8d565b610344565b90565b90565b612db8612db3612dbd92612da1565b610d8d565b610344565b90565b90565b612dd7612dd2612ddc92612dc0565b610d8d565b610344565b90565b90565b612df6612df1612dfb92612ddf565b610d8d565b610344565b90565b90565b612e15612e10612e1a92612dfe565b610d8d565b610344565b90565b90565b612e34612e2f612e3992612e1d565b610d8d565b610344565b90565b90565b612e53612e4e612e5892612e3c565b610d8d565b610344565b90565b90565b612e72612e6d612e7792612e5b565b610d8d565b610344565b90565b612e82611141565b50612e8c5f611a51565b9080612ebb612eb57a184f03e93ff9f4daa797ed6e38ed64bf6a1f010000000000000000612d09565b91610344565b1015613093575b80612ee3612edd6d04ee2d6d415b85acef8100000000612d47565b91610344565b1015613058575b80612f04612efe662386f26fc10000612d85565b91610344565b1015613024575b80612f22612f1c6305f5e100612dc3565b91610344565b1015612ff3575b80612f3e612f38612710612e01565b91610344565b1015612fc4575b80612f59612f536064612e3f565b91610344565b1015612f96575b612f73612f6d600a612c0b565b91610344565b1015612f7d575b90565b612f9190612f8b60016124cf565b906124f9565b612f7a565b612fad612fbe91612fa76064612e3f565b90612c3b565b91612fb86002612e5e565b906124f9565b90612f60565b612fdc612fed91612fd6612710612e01565b90612c3b565b91612fe76004612e20565b906124f9565b90612f45565b61300d61301e916130076305f5e100612dc3565b90612c3b565b916130186008612de2565b906124f9565b90612f29565b6130416130529161303b662386f26fc10000612d85565b90612c3b565b9161304c6010612da4565b906124f9565b90612f0b565b61307c61308d916130766d04ee2d6d415b85acef8100000000612d47565b90612c3b565b916130876020612d66565b906124f9565b90612eea565b6130c46130d5916130be7a184f03e93ff9f4daa797ed6e38ed64bf6a1f010000000000000000612d09565b90612c3b565b916130cf6040612d28565b906124f9565b90612ec2565b6130ed906130e7610d67565b506130f0565b90565b6130f8610d67565b508061311361310d637965db0b60e01b6101d4565b916101d4565b14908115613120575b5090565b61312a915061315f565b5f61311c565b90565b61314761314261314c92613130565b611a91565b6101d4565b90565b61315c6349064906613133565b90565b613167610d67565b508061318261317c61317761314f565b6101d4565b916101d4565b1490811561318f575b5090565b613199915061319f565b5f61318b565b6131a7610d67565b50806131c26131bc63780e9d6360e01b6101d4565b916101d4565b149081156131cf575b5090565b6131d991506131df565b5f6131cb565b6131e7610d67565b50806132026131fc6380ac58cd60e01b6101d4565b916101d4565b148015613226575b908115613216575b5090565b6132209150613247565b5f613212565b508061324161323b635b5e139f60e01b6101d4565b916101d4565b1461320a565b61324f610d67565b506132696132636301ffc9a760e01b6101d4565b916101d4565b149056fea264697066735822122045ed1ed9385a12179d6f34f0026c955f5e1da00d13123a804255ac2cd79e96af64736f6c63430008150033",
  "immutableReferences": {},
  "source": "// SPDX-License-Identifier: MIT\npragma solidity ^0.8.0;\n\nimport { ERC721 } from \"@openzeppelin/contracts/token/ERC721/ERC721.sol\";\nimport { ERC721URIStorage } from \"@openzeppelin/contracts/token/ERC721/extensions/ERC721URIStorage.sol\";\nimport { ERC721Enumerable } from \"@openzeppelin/contracts/token/ERC721/extensions/ERC721Enumerable.sol\";\nimport { AccessControl } from \"@openzeppelin/contracts/access/AccessControl.sol\";\n\ncontract NFT is ERC721, ERC721Enumerable, ERC721URIStorage, AccessControl {\n  bytes32 public constant MINTER_ROLE = keccak256(\"MINTER_ROLE\");\n\n  string[] private _NFTs;\n  string private baseCID = \"bafybeigwj6oft4eg5xgba5jfa762qffbj7khmg3icgfxw4tsq6vsorpksa\";\n  string[] private nftFiles = [\n    \"ada.png\",\n    \"dymka.png\",\n    \"israeli.png\",\n    \"krasotaYrodstvo.png\",\n    \"mbm.png\",\n    \"mouse.png\",\n    \"rodeo.png\"\n  ];\n  uint256 private _tokenIdCounter;\n  mapping(string => bool) private _minted;\n  mapping(address => mapping(string => bool)) private _userMinted;\n\n  address public stakingContract;\n\n  constructor(address initialOwner) ERC721(\"Diamond\", \"DiamondNFT\") {\n    _grantRole(DEFAULT_ADMIN_ROLE, initialOwner);\n    _grantRole(MINTER_ROLE, initialOwner);\n\n    for (uint256 i = 0; i < nftFiles.length; i++) {\n      string memory fullURI = string.concat(baseCID, \"/\", nftFiles[i]);\n      _NFTs.push(fullURI);\n    }\n\n    for (uint256 i = 0; i < _NFTs.length; i++) {\n      _minted[_NFTs[i]] = false;\n    }\n  }\n\n  function safeMint(address to) public onlyRole(MINTER_ROLE) returns (string memory) {\n    require(_NFTs.length > 0, \"No NFTs initialized\");\n\n    for (uint256 i = 0; i < _NFTs.length; i++) {\n      string memory currentNFT = _NFTs[i];\n\n      if (!_userMinted[to][currentNFT]) {\n        uint256 tokenId = _tokenIdCounter++;\n        _userMinted[to][currentNFT] = true;\n\n        _safeMint(to, tokenId);\n        _setTokenURI(tokenId, currentNFT);\n\n        return currentNFT;\n      }\n\n      // if (!_minted[currentNFT]) {\n      //   uint256 tokenId = _tokenIdCounter++;\n      //   _minted[currentNFT] = true;\n\n      //   _safeMint(to, tokenId);\n      //   _setTokenURI(tokenId, currentNFT);\n\n      //   return currentNFT;\n      // }\n    }\n\n    return \"\";\n  }\n\n  function getAvailableNFTs() public view returns (string[] memory) {\n    return _NFTs;\n  }\n\n  // The following functions are overrides required by Solidity.\n\n  function _update(\n    address to,\n    uint256 tokenId,\n    address auth\n  ) internal override(ERC721, ERC721Enumerable) returns (address) {\n    return super._update(to, tokenId, auth);\n  }\n\n  function _increaseBalance(\n    address account,\n    uint128 value\n  ) internal override(ERC721, ERC721Enumerable) {\n    super._increaseBalance(account, value);\n  }\n\n  function tokenURI(\n    uint256 tokenId\n  ) public view override(ERC721, ERC721URIStorage) returns (string memory) {\n    return super.tokenURI(tokenId);\n  }\n\n  function supportsInterface(\n    bytes4 interfaceId\n  ) public view override(ERC721, ERC721Enumerable, ERC721URIStorage, AccessControl) returns (bool) {\n    return super.supportsInterface(interfaceId);\n  }\n}\n",
  "sourcePath": "/Users/diamondniam/Laboratory/Development/Test/DiamondNiamToken/contracts/NFT.sol",
  "compiler": {
    "name": "solc",
    "version": "0.8.21+commit.d9974bed.Emscripten.clang"
  },
  "schemaVersion": "3.4.16",
  "updatedAt": "2025-08-05T16:09:51.867Z",
  "networkType": "ethereum",
  "devdoc": {
    "errors": {
      "AccessControlBadConfirmation()": [
        {
          "details": "The caller of a function is not the expected one. NOTE: Don't confuse with {AccessControlUnauthorizedAccount}."
        }
      ],
      "AccessControlUnauthorizedAccount(address,bytes32)": [
        {
          "details": "The `account` is missing a role."
        }
      ],
      "ERC721EnumerableForbiddenBatchMint()": [
        {
          "details": "Batch mint is not allowed."
        }
      ],
      "ERC721IncorrectOwner(address,uint256,address)": [
        {
          "details": "Indicates an error related to the ownership over a particular token. Used in transfers.",
          "params": {
            "owner": "Address of the current owner of a token.",
            "sender": "Address whose tokens are being transferred.",
            "tokenId": "Identifier number of a token."
          }
        }
      ],
      "ERC721InsufficientApproval(address,uint256)": [
        {
          "details": "Indicates a failure with the `operator`s approval. Used in transfers.",
          "params": {
            "operator": "Address that may be allowed to operate on tokens without being their owner.",
            "tokenId": "Identifier number of a token."
          }
        }
      ],
      "ERC721InvalidApprover(address)": [
        {
          "details": "Indicates a failure with the `approver` of a token to be approved. Used in approvals.",
          "params": {
            "approver": "Address initiating an approval operation."
          }
        }
      ],
      "ERC721InvalidOperator(address)": [
        {
          "details": "Indicates a failure with the `operator` to be approved. Used in approvals.",
          "params": {
            "operator": "Address that may be allowed to operate on tokens without being their owner."
          }
        }
      ],
      "ERC721InvalidOwner(address)": [
        {
          "details": "Indicates that an address can't be an owner. For example, `address(0)` is a forbidden owner in ERC-20. Used in balance queries.",
          "params": {
            "owner": "Address of the current owner of a token."
          }
        }
      ],
      "ERC721InvalidReceiver(address)": [
        {
          "details": "Indicates a failure with the token `receiver`. Used in transfers.",
          "params": {
            "receiver": "Address to which tokens are being transferred."
          }
        }
      ],
      "ERC721InvalidSender(address)": [
        {
          "details": "Indicates a failure with the token `sender`. Used in transfers.",
          "params": {
            "sender": "Address whose tokens are being transferred."
          }
        }
      ],
      "ERC721NonexistentToken(uint256)": [
        {
          "details": "Indicates a `tokenId` whose `owner` is the zero address.",
          "params": {
            "tokenId": "Identifier number of a token."
          }
        }
      ],
      "ERC721OutOfBoundsIndex(address,uint256)": [
        {
          "details": "An `owner`'s token query was out of bounds for `index`. NOTE: The owner being `address(0)` indicates a global out of bounds index."
        }
      ]
    },
    "events": {
      "Approval(address,address,uint256)": {
        "details": "Emitted when `owner` enables `approved` to manage the `tokenId` token."
      },
      "ApprovalForAll(address,address,bool)": {
        "details": "Emitted when `owner` enables or disables (`approved`) `operator` to manage all of its assets."
      },
      "BatchMetadataUpdate(uint256,uint256)": {
        "details": "This event emits when the metadata of a range of tokens is changed. So that the third-party platforms such as NFT market could timely update the images and related attributes of the NFTs."
      },
      "MetadataUpdate(uint256)": {
        "details": "This event emits when the metadata of a token is changed. So that the third-party platforms such as NFT market could timely update the images and related attributes of the NFT."
      },
      "RoleAdminChanged(bytes32,bytes32,bytes32)": {
        "details": "Emitted when `newAdminRole` is set as ``role``'s admin role, replacing `previousAdminRole` `DEFAULT_ADMIN_ROLE` is the starting admin for all roles, despite {RoleAdminChanged} not being emitted to signal this."
      },
      "RoleGranted(bytes32,address,address)": {
        "details": "Emitted when `account` is granted `role`. `sender` is the account that originated the contract call. This account bears the admin role (for the granted role). Expected in cases where the role was granted using the internal {AccessControl-_grantRole}."
      },
      "RoleRevoked(bytes32,address,address)": {
        "details": "Emitted when `account` is revoked `role`. `sender` is the account that originated the contract call:   - if using `revokeRole`, it is the admin role bearer   - if using `renounceRole`, it is the role bearer (i.e. `account`)"
      },
      "Transfer(address,address,uint256)": {
        "details": "Emitted when `tokenId` token is transferred from `from` to `to`."
      }
    },
    "kind": "dev",
    "methods": {
      "approve(address,uint256)": {
        "details": "Gives permission to `to` to transfer `tokenId` token to another account. The approval is cleared when the token is transferred. Only a single account can be approved at a time, so approving the zero address clears previous approvals. Requirements: - The caller must own the token or be an approved operator. - `tokenId` must exist. Emits an {Approval} event."
      },
      "balanceOf(address)": {
        "details": "Returns the number of tokens in ``owner``'s account."
      },
      "getApproved(uint256)": {
        "details": "Returns the account approved for `tokenId` token. Requirements: - `tokenId` must exist."
      },
      "getRoleAdmin(bytes32)": {
        "details": "Returns the admin role that controls `role`. See {grantRole} and {revokeRole}. To change a role's admin, use {_setRoleAdmin}."
      },
      "grantRole(bytes32,address)": {
        "details": "Grants `role` to `account`. If `account` had not been already granted `role`, emits a {RoleGranted} event. Requirements: - the caller must have ``role``'s admin role. May emit a {RoleGranted} event."
      },
      "hasRole(bytes32,address)": {
        "details": "Returns `true` if `account` has been granted `role`."
      },
      "isApprovedForAll(address,address)": {
        "details": "Returns if the `operator` is allowed to manage all of the assets of `owner`. See {setApprovalForAll}"
      },
      "name()": {
        "details": "Returns the token collection name."
      },
      "ownerOf(uint256)": {
        "details": "Returns the owner of the `tokenId` token. Requirements: - `tokenId` must exist."
      },
      "renounceRole(bytes32,address)": {
        "details": "Revokes `role` from the calling account. Roles are often managed via {grantRole} and {revokeRole}: this function's purpose is to provide a mechanism for accounts to lose their privileges if they are compromised (such as when a trusted device is misplaced). If the calling account had been revoked `role`, emits a {RoleRevoked} event. Requirements: - the caller must be `callerConfirmation`. May emit a {RoleRevoked} event."
      },
      "revokeRole(bytes32,address)": {
        "details": "Revokes `role` from `account`. If `account` had been granted `role`, emits a {RoleRevoked} event. Requirements: - the caller must have ``role``'s admin role. May emit a {RoleRevoked} event."
      },
      "safeTransferFrom(address,address,uint256)": {
        "details": "Safely transfers `tokenId` token from `from` to `to`, checking first that contract recipients are aware of the ERC-721 protocol to prevent tokens from being forever locked. Requirements: - `from` cannot be the zero address. - `to` cannot be the zero address. - `tokenId` token must exist and be owned by `from`. - If the caller is not `from`, it must have been allowed to move this token by either {approve} or   {setApprovalForAll}. - If `to` refers to a smart contract, it must implement {IERC721Receiver-onERC721Received}, which is called upon   a safe transfer. Emits a {Transfer} event."
      },
      "safeTransferFrom(address,address,uint256,bytes)": {
        "details": "Safely transfers `tokenId` token from `from` to `to`. Requirements: - `from` cannot be the zero address. - `to` cannot be the zero address. - `tokenId` token must exist and be owned by `from`. - If the caller is not `from`, it must be approved to move this token by either {approve} or {setApprovalForAll}. - If `to` refers to a smart contract, it must implement {IERC721Receiver-onERC721Received}, which is called upon   a safe transfer. Emits a {Transfer} event."
      },
      "setApprovalForAll(address,bool)": {
        "details": "Approve or remove `operator` as an operator for the caller. Operators can call {transferFrom} or {safeTransferFrom} for any token owned by the caller. Requirements: - The `operator` cannot be the address zero. Emits an {ApprovalForAll} event."
      },
      "symbol()": {
        "details": "Returns the token collection symbol."
      },
      "tokenByIndex(uint256)": {
        "details": "Returns a token ID at a given `index` of all the tokens stored by the contract. Use along with {totalSupply} to enumerate all tokens."
      },
      "tokenOfOwnerByIndex(address,uint256)": {
        "details": "Returns a token ID owned by `owner` at a given `index` of its token list. Use along with {balanceOf} to enumerate all of ``owner``'s tokens."
      },
      "totalSupply()": {
        "details": "Returns the total amount of tokens stored by the contract."
      },
      "transferFrom(address,address,uint256)": {
        "details": "Transfers `tokenId` token from `from` to `to`. WARNING: Note that the caller is responsible to confirm that the recipient is capable of receiving ERC-721 or else they may be permanently lost. Usage of {safeTransferFrom} prevents loss, though the caller must understand this adds an external call which potentially creates a reentrancy vulnerability. Requirements: - `from` cannot be the zero address. - `to` cannot be the zero address. - `tokenId` token must be owned by `from`. - If the caller is not `from`, it must be approved to move this token by either {approve} or {setApprovalForAll}. Emits a {Transfer} event."
      }
    },
    "version": 1
  },
  "userdoc": {
    "kind": "user",
    "methods": {},
    "version": 1
  }
}