{
  "contractName": "Presale",
  "abi": [
    {
      "inputs": [
        {
          "internalType": "address",
          "name": "tokenAddress",
          "type": "address"
        }
      ],
      "stateMutability": "nonpayable",
      "type": "constructor"
    },
    {
      "inputs": [],
      "name": "token",
      "outputs": [
        {
          "internalType": "contract Token",
          "name": "",
          "type": "address"
        }
      ],
      "stateMutability": "view",
      "type": "function",
      "constant": true
    },
    {
      "inputs": [],
      "name": "buy",
      "outputs": [],
      "stateMutability": "payable",
      "type": "function",
      "payable": true
    }
  ],
  "bytecode": "0x60806040523462000037576200001e6200001862000110565b620001d0565b620000286200003d565b6104f4620001e982396104f490f35b62000043565b60405190565b5f80fd5b601f801991011690565b634e487b7160e01b5f52604160045260245ffd5b90620000719062000047565b810190811060018060401b038211176200008a57604052565b62000051565b90620000a76200009f6200003d565b928362000065565b565b5f80fd5b60018060a01b031690565b620000c390620000ad565b90565b620000d181620000b8565b03620000d957565b5f80fd5b90505190620000ec82620000c6565b565b906020828203126200010a5762000107915f01620000dd565b90565b620000a9565b62000133620006dd80380380620001278162000090565b928339810190620000ee565b90565b90565b620001526200014c6200015892620000ad565b62000136565b620000ad565b90565b620001669062000139565b90565b62000174906200015b565b90565b5f1b90565b906200018f60018060a01b039162000177565b9181191691161790565b620001a4906200015b565b90565b90565b90620001c4620001be620001cc9262000199565b620001a7565b82546200017c565b9055565b620001df620001e69162000169565b5f620001aa565b56fe60806040526004361015610013575b610168565b61001d5f3561003c565b8063a6f2ae3a146100375763fc0c546a0361000e57610133565b610060565b60e01c90565b60405190565b5f80fd5b5f91031261005657565b610048565b5f0190565b61006b36600461004c565b610073610382565b61007b610042565b806100858161005b565b0390f35b5f80fd5b1c90565b60018060a01b031690565b6100ac9060086100b1930261008d565b610091565b90565b906100bf915461009c565b90565b6100cc5f806100b4565b90565b60018060a01b031690565b90565b6100f16100ec6100f6926100cf565b6100da565b6100cf565b90565b610102906100dd565b90565b61010e906100f9565b90565b61011a90610105565b9052565b9190610131905f60208501940190610111565b565b346101635761014336600461004c565b61015f61014e6100c2565b610156610042565b9182918261011e565b0390f35b610089565b5f80fd5b90565b90565b61018661018161018b9261016f565b6100da565b61016c565b90565b60209181520190565b5f7f53656e642045544820746f2062757920746f6b656e7300000000000000000000910152565b6101cb601660209261018e565b6101d481610197565b0190565b6101ed9060208101905f8183039101526101be565b90565b156101f757565b6101ff610042565b62461bcd60e51b815280610215600482016101d8565b0390fd5b5f1c90565b61022a61022f91610219565b610091565b90565b61023c905461021e565b90565b5f80fd5b601f801991011690565b634e487b7160e01b5f52604160045260245ffd5b9061026b90610243565b810190811067ffffffffffffffff82111761028557604052565b61024d565b60e01b90565b6102998161016c565b036102a057565b5f80fd5b905051906102b182610290565b565b906020828203126102cc576102c9915f016102a4565b90565b610048565b6102d9610042565b3d5f823e3d90fd5b634e487b7160e01b5f52601160045260245ffd5b61030461030a9193929361016c565b9261016c565b9161031683820261016c565b92818404149015171561032557565b6102e1565b5f91031261033457565b610048565b610342906100cf565b90565b61034e90610339565b9052565b61035b9061016c565b9052565b91602061038092949361037960408201965f830190610345565b0190610352565b565b61039e346103986103925f610172565b9161016c565b116101f0565b6103cb3460206103b56103b05f610232565b610105565b63679aefce906103c3610042565b94859261028a565b825281806103db6004820161005b565b03915afa9081156104b9576103f7925f92610489575b506102f5565b6104086104035f610232565b610105565b906340c10f1990339092803b15610484576104365f809461044161042a610042565b9788968795869461028a565b84526004840161035f565b03925af1801561047f57610453575b50565b610472905f3d8111610478575b61046a8183610261565b81019061032a565b5f610450565b503d610460565b6102d1565b61023f565b6104ab91925060203d81116104b2575b6104a38183610261565b8101906102b3565b905f6103f1565b503d610499565b6102d156fea26469706673582212205d59c18d783f84a6819584ae3ee4e750571761eb8657f9878c05f234a96490ea64736f6c63430008150033",
  "immutableReferences": {},
  "source": "// SPDX-License-Identifier: MIT\npragma solidity ^0.8.0;\n\nimport \"./Token.sol\";\n\ncontract Presale {\n  Token public token;\n\n  constructor(address tokenAddress) {\n    token = Token(tokenAddress);\n  }\n\n  function buy() external payable {\n    require(msg.value > 0, \"Send ETH to buy tokens\");\n    uint256 amount = msg.value * token.getRate();\n    token.mint(msg.sender, amount);\n  }\n}\n",
  "sourcePath": "/Users/diamondniam/Laboratory/Development/Test/DiamondNiamToken/contracts/Presale.sol",
  "compiler": {
    "name": "solc",
    "version": "0.8.21+commit.d9974bed.Emscripten.clang"
  },
  "schemaVersion": "3.4.16",
  "updatedAt": "2025-08-05T16:09:51.870Z",
  "networkType": "ethereum",
  "devdoc": {
    "kind": "dev",
    "methods": {},
    "version": 1
  },
  "userdoc": {
    "kind": "user",
    "methods": {},
    "version": 1
  }
}