{
  "contractName": "Stacking",
  "abi": [
    {
      "inputs": [
        {
          "internalType": "address",
          "name": "tokenAddress",
          "type": "address"
        },
        {
          "internalType": "contract NFT",
          "name": "_nft",
          "type": "address"
        }
      ],
      "stateMutability": "nonpayable",
      "type": "constructor"
    },
    {
      "inputs": [],
      "name": "amountToGetNFT",
      "outputs": [
        {
          "internalType": "uint256",
          "name": "",
          "type": "uint256"
        }
      ],
      "stateMutability": "view",
      "type": "function"
    },
    {
      "inputs": [],
      "name": "nft",
      "outputs": [
        {
          "internalType": "contract NFT",
          "name": "",
          "type": "address"
        }
      ],
      "stateMutability": "view",
      "type": "function"
    },
    {
      "inputs": [
        {
          "internalType": "address",
          "name": "",
          "type": "address"
        }
      ],
      "name": "staked",
      "outputs": [
        {
          "internalType": "uint256",
          "name": "",
          "type": "uint256"
        }
      ],
      "stateMutability": "view",
      "type": "function"
    },
    {
      "inputs": [],
      "name": "token",
      "outputs": [
        {
          "internalType": "contract Token",
          "name": "",
          "type": "address"
        }
      ],
      "stateMutability": "view",
      "type": "function"
    },
    {
      "inputs": [],
      "name": "stake",
      "outputs": [],
      "stateMutability": "payable",
      "type": "function"
    },
    {
      "inputs": [
        {
          "internalType": "address",
          "name": "user",
          "type": "address"
        }
      ],
      "name": "getBalance",
      "outputs": [
        {
          "internalType": "uint256",
          "name": "",
          "type": "uint256"
        }
      ],
      "stateMutability": "view",
      "type": "function"
    },
    {
      "inputs": [],
      "name": "getAmountToGetNFT",
      "outputs": [
        {
          "internalType": "uint256",
          "name": "",
          "type": "uint256"
        }
      ],
      "stateMutability": "pure",
      "type": "function"
    }
  ],
  "bytecode": "0x60e06040523462000076576200001f6200001862000196565b9062000226565b620000296200007c565b610a6c6200024982396080518181816103710152818161079f015261080a015260a05181818161013901526108f5015260c0518181816102e3015281816108b90152610a140152610a6c90f35b62000082565b60405190565b5f80fd5b601f801991011690565b634e487b7160e01b5f52604160045260245ffd5b90620000b09062000086565b810190811060018060401b03821117620000c957604052565b62000090565b90620000e6620000de6200007c565b9283620000a4565b565b5f80fd5b60018060a01b031690565b6200010290620000ec565b90565b6200011081620000f7565b036200011857565b5f80fd5b905051906200012b8262000105565b565b6200013890620000f7565b90565b62000146816200012d565b036200014e57565b5f80fd5b9050519062000161826200013b565b565b9190604083820312620001905780620001836200018d925f86016200011c565b9360200162000152565b90565b620000e8565b620001b962000cb580380380620001ad81620000cf565b92833981019062000163565b9091565b90565b90565b90565b620001df620001d9620001e592620001bd565b620001c3565b620001c0565b90565b62000201620001fb6200020792620000ec565b620001c3565b620000ec565b90565b6200021590620001e8565b90565b62000223906200020a565b90565b620002409062000237601e620001c6565b60c05262000218565b60805260a05256fe60806040526004361015610013575b6103f6565b61001d5f3561008c565b806312e2c976146100875780633a4b66f11461008257806347ccca021461007d57806398807d841461007857806398d6817214610073578063f8b2cb4f1461006e5763fc0c546a0361000e576103c1565b61033a565b610305565b6102ac565b6101bf565b61010e565b6100d4565b60e01c90565b60405190565b5f80fd5b5f80fd5b5f9103126100aa57565b61009c565b90565b6100bb906100af565b9052565b91906100d2905f602085019401906100b2565b565b34610104576100e43660046100a0565b6101006100ef610a09565b6100f7610092565b918291826100bf565b0390f35b610098565b5f0190565b6101193660046100a0565b610121610779565b610129610092565b8061013381610109565b0390f35b7f000000000000000000000000000000000000000000000000000000000000000090565b60018060a01b031690565b90565b61017d6101786101829261015b565b610166565b61015b565b90565b61018e90610169565b90565b61019a90610185565b90565b6101a690610191565b9052565b91906101bd905f6020850194019061019d565b565b346101ef576101cf3660046100a0565b6101eb6101da610137565b6101e2610092565b918291826101aa565b0390f35b610098565b5f80fd5b6102019061015b565b90565b61020d816101f8565b0361021457565b5f80fd5b9050359061022582610204565b565b906020828203126102405761023d915f01610218565b90565b61009c565b61024e90610185565b90565b9061025b90610245565b5f5260205260405f2090565b1c90565b90565b61027e9060086102839302610267565b61026b565b90565b90610291915461026e565b90565b6102a9906102a45f915f92610251565b610286565b90565b346102dc576102d86102c76102c2366004610227565b610294565b6102cf610092565b918291826100bf565b0390f35b610098565b7f000000000000000000000000000000000000000000000000000000000000000090565b34610335576103153660046100a0565b6103316103206102e1565b610328610092565b918291826100bf565b0390f35b610098565b3461036a57610366610355610350366004610227565b6109eb565b61035d610092565b918291826100bf565b0390f35b610098565b7f000000000000000000000000000000000000000000000000000000000000000090565b61039c90610185565b90565b6103a890610393565b9052565b91906103bf905f6020850194019061039f565b565b346103f1576103d13660046100a0565b6103ed6103dc61036f565b6103e4610092565b918291826103ac565b0390f35b610098565b5f80fd5b90565b61041161040c610416926103fa565b610166565b6100af565b90565b60209181520190565b5f7f5374616b65206d6f7265207468616e2030000000000000000000000000000000910152565b6104566011602092610419565b61045f81610422565b0190565b6104789060208101905f818303910152610449565b90565b1561048257565b61048a610092565b62461bcd60e51b8152806104a060048201610463565b0390fd5b5f80fd5b601f801991011690565b634e487b7160e01b5f52604160045260245ffd5b906104d0906104a8565b810190811067ffffffffffffffff8211176104ea57604052565b6104b2565b60e01b90565b6104fe816100af565b0361050557565b5f80fd5b90505190610516826104f5565b565b906020828203126105315761052e915f01610509565b90565b61009c565b61053e610092565b3d5f823e3d90fd5b634e487b7160e01b5f52601160045260245ffd5b61056961056f919392936100af565b926100af565b9161057b8382026100af565b92818404149015171561058a57565b610546565b5f91031261059957565b61009c565b6105a7906101f8565b9052565b9160206105cc9294936105c560408201965f83019061059e565b01906100b2565b565b5f1c90565b6105df6105e4916105ce565b61026b565b90565b6105f190546105d3565b90565b610603610609919392936100af565b926100af565b820180921161061457565b610546565b5f1b90565b9061062a5f1991610619565b9181191691161790565b61064861064361064d926100af565b610166565b6100af565b90565b90565b9061066861066361066f92610634565b610650565b825461061e565b9055565b5f80fd5b5f80fd5b9061068e610687610092565b92836104c6565b565b67ffffffffffffffff81116106ae576106aa6020916104a8565b0190565b6104b2565b5f5b8381106106c5575050905f910152565b8060209183015181850152016106b5565b909291926106eb6106e682610690565b61067b565b9381855260208501908284011161070757610705926106b3565b565b610677565b9080601f8301121561072a57816020610727935191016106d6565b90565b610673565b9060208282031261075f575f82015167ffffffffffffffff811161075a57610757920161070c565b90565b6101f4565b61009c565b9190610777905f6020850194019061059e565b565b6107953461078f6107895f6103fd565b916100af565b1161047b565b6107d960206107c37f0000000000000000000000000000000000000000000000000000000000000000610393565b63679aefce906107d1610092565b9384926104ef565b825281806107e960048201610109565b03915afa80156109e257610805915f916109b4575b503461055a565b61082e7f0000000000000000000000000000000000000000000000000000000000000000610393565b906340c10f19338293803b156109af5761085b5f809461086661084f610092565b988996879586946104ef565b8452600484016105ab565b03925af19182156109aa5761089e9261097e575b506108986108895f3390610251565b91610893836105e7565b6105f4565b90610653565b6108b16108ac5f3390610251565b6105e7565b6108e36108dd7f00000000000000000000000000000000000000000000000000000000000000006100af565b916100af565b10156108ec575b565b6109445f6109197f0000000000000000000000000000000000000000000000000000000000000000610191565b6340d097c39061093983339361092d610092565b968795869485936104ef565b835260048301610764565b03925af1801561097957610959575b506108ea565b610974903d805f833e61096c81836104c6565b81019061072f565b610953565b610536565b61099d905f3d81116109a3575b61099581836104c6565b81019061058f565b5f61087a565b503d61098b565b610536565b6104a4565b6109d5915060203d81116109db575b6109cd81836104c6565b810190610518565b5f6107fe565b503d6109c3565b610536565b5f90565b610a01610a06916109fa6109e7565b505f610251565b6105e7565b90565b610a116109e7565b507f00000000000000000000000000000000000000000000000000000000000000009056fea264697066735822122003303beef45f119ebb5145da71ca54c88289ff8f313a8f2d85fc87e0f65b650264736f6c63430008150033",
  "immutableReferences": {
    "9506": [
      {
        "length": 32,
        "start": 881
      },
      {
        "length": 32,
        "start": 1951
      },
      {
        "length": 32,
        "start": 2058
      }
    ],
    "9509": [
      {
        "length": 32,
        "start": 313
      },
      {
        "length": 32,
        "start": 2293
      }
    ],
    "9512": [
      {
        "length": 32,
        "start": 739
      },
      {
        "length": 32,
        "start": 2233
      },
      {
        "length": 32,
        "start": 2580
      }
    ]
  },
  "source": "// SPDX-License-Identifier: MIT\npragma solidity ^0.8.0;\n\nimport \"./Token.sol\";\nimport \"./NFT.sol\";\n\ncontract Stacking {\n  Token public immutable token;\n  NFT public immutable nft;\n  uint256 public immutable amountToGetNFT = 30;\n  mapping(address => uint256) public staked;\n\n  constructor(address tokenAddress, NFT _nft) {\n    token = Token(tokenAddress);\n    nft = _nft;\n  }\n\n  function stake() external payable {\n    require(msg.value > 0, \"Stake more than 0\");\n    uint256 rate = token.getRate();\n    uint256 tokensAmount = msg.value * rate;\n    token.mint(msg.sender, tokensAmount);\n    staked[msg.sender] += tokensAmount;\n\n    if (staked[msg.sender] >= amountToGetNFT) {\n      nft.safeMint(msg.sender);\n    }\n  }\n\n  function getBalance(address user) external view returns (uint256) {\n    return staked[user];\n  }\n\n  function getAmountToGetNFT() external pure returns (uint256) {\n    return amountToGetNFT;\n  }\n}\n",
  "sourcePath": "/Users/diamondniam/Laboratory/Development/Test/DiamondNiamToken/contracts/Stacking.sol",
  "compiler": {
    "name": "solc",
    "version": "0.8.21+commit.d9974bed.Emscripten.clang"
  },
  "schemaVersion": "3.4.16",
  "updatedAt": "2025-08-02T23:25:25.217Z",
  "devdoc": {
    "kind": "dev",
    "methods": {},
    "version": 1
  },
  "userdoc": {
    "kind": "user",
    "methods": {},
    "version": 1
  }
}