{
  "contractName": "Token",
  "abi": [
    {
      "inputs": [
        {
          "internalType": "address",
          "name": "initialOwner",
          "type": "address"
        }
      ],
      "stateMutability": "nonpayable",
      "type": "constructor"
    },
    {
      "inputs": [],
      "name": "AccessControlBadConfirmation",
      "type": "error"
    },
    {
      "inputs": [
        {
          "internalType": "address",
          "name": "account",
          "type": "address"
        },
        {
          "internalType": "bytes32",
          "name": "neededRole",
          "type": "bytes32"
        }
      ],
      "name": "AccessControlUnauthorizedAccount",
      "type": "error"
    },
    {
      "inputs": [],
      "name": "ECDSAInvalidSignature",
      "type": "error"
    },
    {
      "inputs": [
        {
          "internalType": "uint256",
          "name": "length",
          "type": "uint256"
        }
      ],
      "name": "ECDSAInvalidSignatureLength",
      "type": "error"
    },
    {
      "inputs": [
        {
          "internalType": "bytes32",
          "name": "s",
          "type": "bytes32"
        }
      ],
      "name": "ECDSAInvalidSignatureS",
      "type": "error"
    },
    {
      "inputs": [
        {
          "internalType": "address",
          "name": "spender",
          "type": "address"
        },
        {
          "internalType": "uint256",
          "name": "allowance",
          "type": "uint256"
        },
        {
          "internalType": "uint256",
          "name": "needed",
          "type": "uint256"
        }
      ],
      "name": "ERC20InsufficientAllowance",
      "type": "error"
    },
    {
      "inputs": [
        {
          "internalType": "address",
          "name": "sender",
          "type": "address"
        },
        {
          "internalType": "uint256",
          "name": "balance",
          "type": "uint256"
        },
        {
          "internalType": "uint256",
          "name": "needed",
          "type": "uint256"
        }
      ],
      "name": "ERC20InsufficientBalance",
      "type": "error"
    },
    {
      "inputs": [
        {
          "internalType": "address",
          "name": "approver",
          "type": "address"
        }
      ],
      "name": "ERC20InvalidApprover",
      "type": "error"
    },
    {
      "inputs": [
        {
          "internalType": "address",
          "name": "receiver",
          "type": "address"
        }
      ],
      "name": "ERC20InvalidReceiver",
      "type": "error"
    },
    {
      "inputs": [
        {
          "internalType": "address",
          "name": "sender",
          "type": "address"
        }
      ],
      "name": "ERC20InvalidSender",
      "type": "error"
    },
    {
      "inputs": [
        {
          "internalType": "address",
          "name": "spender",
          "type": "address"
        }
      ],
      "name": "ERC20InvalidSpender",
      "type": "error"
    },
    {
      "inputs": [
        {
          "internalType": "uint256",
          "name": "deadline",
          "type": "uint256"
        }
      ],
      "name": "ERC2612ExpiredSignature",
      "type": "error"
    },
    {
      "inputs": [
        {
          "internalType": "address",
          "name": "signer",
          "type": "address"
        },
        {
          "internalType": "address",
          "name": "owner",
          "type": "address"
        }
      ],
      "name": "ERC2612InvalidSigner",
      "type": "error"
    },
    {
      "inputs": [
        {
          "internalType": "address",
          "name": "account",
          "type": "address"
        },
        {
          "internalType": "uint256",
          "name": "currentNonce",
          "type": "uint256"
        }
      ],
      "name": "InvalidAccountNonce",
      "type": "error"
    },
    {
      "inputs": [],
      "name": "InvalidShortString",
      "type": "error"
    },
    {
      "inputs": [
        {
          "internalType": "string",
          "name": "str",
          "type": "string"
        }
      ],
      "name": "StringTooLong",
      "type": "error"
    },
    {
      "anonymous": false,
      "inputs": [
        {
          "indexed": true,
          "internalType": "address",
          "name": "owner",
          "type": "address"
        },
        {
          "indexed": true,
          "internalType": "address",
          "name": "spender",
          "type": "address"
        },
        {
          "indexed": false,
          "internalType": "uint256",
          "name": "value",
          "type": "uint256"
        }
      ],
      "name": "Approval",
      "type": "event"
    },
    {
      "anonymous": false,
      "inputs": [],
      "name": "EIP712DomainChanged",
      "type": "event"
    },
    {
      "anonymous": false,
      "inputs": [
        {
          "indexed": true,
          "internalType": "bytes32",
          "name": "role",
          "type": "bytes32"
        },
        {
          "indexed": true,
          "internalType": "bytes32",
          "name": "previousAdminRole",
          "type": "bytes32"
        },
        {
          "indexed": true,
          "internalType": "bytes32",
          "name": "newAdminRole",
          "type": "bytes32"
        }
      ],
      "name": "RoleAdminChanged",
      "type": "event"
    },
    {
      "anonymous": false,
      "inputs": [
        {
          "indexed": true,
          "internalType": "bytes32",
          "name": "role",
          "type": "bytes32"
        },
        {
          "indexed": true,
          "internalType": "address",
          "name": "account",
          "type": "address"
        },
        {
          "indexed": true,
          "internalType": "address",
          "name": "sender",
          "type": "address"
        }
      ],
      "name": "RoleGranted",
      "type": "event"
    },
    {
      "anonymous": false,
      "inputs": [
        {
          "indexed": true,
          "internalType": "bytes32",
          "name": "role",
          "type": "bytes32"
        },
        {
          "indexed": true,
          "internalType": "address",
          "name": "account",
          "type": "address"
        },
        {
          "indexed": true,
          "internalType": "address",
          "name": "sender",
          "type": "address"
        }
      ],
      "name": "RoleRevoked",
      "type": "event"
    },
    {
      "anonymous": false,
      "inputs": [
        {
          "indexed": true,
          "internalType": "address",
          "name": "from",
          "type": "address"
        },
        {
          "indexed": true,
          "internalType": "address",
          "name": "to",
          "type": "address"
        },
        {
          "indexed": false,
          "internalType": "uint256",
          "name": "value",
          "type": "uint256"
        }
      ],
      "name": "Transfer",
      "type": "event"
    },
    {
      "inputs": [],
      "name": "DEFAULT_ADMIN_ROLE",
      "outputs": [
        {
          "internalType": "bytes32",
          "name": "",
          "type": "bytes32"
        }
      ],
      "stateMutability": "view",
      "type": "function",
      "constant": true
    },
    {
      "inputs": [],
      "name": "DOMAIN_SEPARATOR",
      "outputs": [
        {
          "internalType": "bytes32",
          "name": "",
          "type": "bytes32"
        }
      ],
      "stateMutability": "view",
      "type": "function",
      "constant": true
    },
    {
      "inputs": [],
      "name": "MINTER_ROLE",
      "outputs": [
        {
          "internalType": "bytes32",
          "name": "",
          "type": "bytes32"
        }
      ],
      "stateMutability": "view",
      "type": "function",
      "constant": true
    },
    {
      "inputs": [
        {
          "internalType": "address",
          "name": "owner",
          "type": "address"
        },
        {
          "internalType": "address",
          "name": "spender",
          "type": "address"
        }
      ],
      "name": "allowance",
      "outputs": [
        {
          "internalType": "uint256",
          "name": "",
          "type": "uint256"
        }
      ],
      "stateMutability": "view",
      "type": "function",
      "constant": true
    },
    {
      "inputs": [
        {
          "internalType": "address",
          "name": "spender",
          "type": "address"
        },
        {
          "internalType": "uint256",
          "name": "value",
          "type": "uint256"
        }
      ],
      "name": "approve",
      "outputs": [
        {
          "internalType": "bool",
          "name": "",
          "type": "bool"
        }
      ],
      "stateMutability": "nonpayable",
      "type": "function"
    },
    {
      "inputs": [
        {
          "internalType": "address",
          "name": "account",
          "type": "address"
        }
      ],
      "name": "balanceOf",
      "outputs": [
        {
          "internalType": "uint256",
          "name": "",
          "type": "uint256"
        }
      ],
      "stateMutability": "view",
      "type": "function",
      "constant": true
    },
    {
      "inputs": [],
      "name": "closesAt",
      "outputs": [
        {
          "internalType": "uint256",
          "name": "",
          "type": "uint256"
        }
      ],
      "stateMutability": "view",
      "type": "function",
      "constant": true
    },
    {
      "inputs": [],
      "name": "decimals",
      "outputs": [
        {
          "internalType": "uint8",
          "name": "",
          "type": "uint8"
        }
      ],
      "stateMutability": "view",
      "type": "function",
      "constant": true
    },
    {
      "inputs": [],
      "name": "eip712Domain",
      "outputs": [
        {
          "internalType": "bytes1",
          "name": "fields",
          "type": "bytes1"
        },
        {
          "internalType": "string",
          "name": "name",
          "type": "string"
        },
        {
          "internalType": "string",
          "name": "version",
          "type": "string"
        },
        {
          "internalType": "uint256",
          "name": "chainId",
          "type": "uint256"
        },
        {
          "internalType": "address",
          "name": "verifyingContract",
          "type": "address"
        },
        {
          "internalType": "bytes32",
          "name": "salt",
          "type": "bytes32"
        },
        {
          "internalType": "uint256[]",
          "name": "extensions",
          "type": "uint256[]"
        }
      ],
      "stateMutability": "view",
      "type": "function",
      "constant": true
    },
    {
      "inputs": [
        {
          "internalType": "bytes32",
          "name": "role",
          "type": "bytes32"
        }
      ],
      "name": "getRoleAdmin",
      "outputs": [
        {
          "internalType": "bytes32",
          "name": "",
          "type": "bytes32"
        }
      ],
      "stateMutability": "view",
      "type": "function",
      "constant": true
    },
    {
      "inputs": [
        {
          "internalType": "bytes32",
          "name": "role",
          "type": "bytes32"
        },
        {
          "internalType": "address",
          "name": "account",
          "type": "address"
        }
      ],
      "name": "grantRole",
      "outputs": [],
      "stateMutability": "nonpayable",
      "type": "function"
    },
    {
      "inputs": [],
      "name": "hardCap",
      "outputs": [
        {
          "internalType": "uint256",
          "name": "",
          "type": "uint256"
        }
      ],
      "stateMutability": "view",
      "type": "function",
      "constant": true
    },
    {
      "inputs": [
        {
          "internalType": "bytes32",
          "name": "role",
          "type": "bytes32"
        },
        {
          "internalType": "address",
          "name": "account",
          "type": "address"
        }
      ],
      "name": "hasRole",
      "outputs": [
        {
          "internalType": "bool",
          "name": "",
          "type": "bool"
        }
      ],
      "stateMutability": "view",
      "type": "function",
      "constant": true
    },
    {
      "inputs": [],
      "name": "name",
      "outputs": [
        {
          "internalType": "string",
          "name": "",
          "type": "string"
        }
      ],
      "stateMutability": "view",
      "type": "function",
      "constant": true
    },
    {
      "inputs": [
        {
          "internalType": "address",
          "name": "owner",
          "type": "address"
        }
      ],
      "name": "nonces",
      "outputs": [
        {
          "internalType": "uint256",
          "name": "",
          "type": "uint256"
        }
      ],
      "stateMutability": "view",
      "type": "function",
      "constant": true
    },
    {
      "inputs": [],
      "name": "opensAt",
      "outputs": [
        {
          "internalType": "uint256",
          "name": "",
          "type": "uint256"
        }
      ],
      "stateMutability": "view",
      "type": "function",
      "constant": true
    },
    {
      "inputs": [
        {
          "internalType": "address",
          "name": "owner",
          "type": "address"
        },
        {
          "internalType": "address",
          "name": "spender",
          "type": "address"
        },
        {
          "internalType": "uint256",
          "name": "value",
          "type": "uint256"
        },
        {
          "internalType": "uint256",
          "name": "deadline",
          "type": "uint256"
        },
        {
          "internalType": "uint8",
          "name": "v",
          "type": "uint8"
        },
        {
          "internalType": "bytes32",
          "name": "r",
          "type": "bytes32"
        },
        {
          "internalType": "bytes32",
          "name": "s",
          "type": "bytes32"
        }
      ],
      "name": "permit",
      "outputs": [],
      "stateMutability": "nonpayable",
      "type": "function"
    },
    {
      "inputs": [],
      "name": "rate",
      "outputs": [
        {
          "internalType": "uint256",
          "name": "",
          "type": "uint256"
        }
      ],
      "stateMutability": "view",
      "type": "function",
      "constant": true
    },
    {
      "inputs": [
        {
          "internalType": "bytes32",
          "name": "role",
          "type": "bytes32"
        },
        {
          "internalType": "address",
          "name": "callerConfirmation",
          "type": "address"
        }
      ],
      "name": "renounceRole",
      "outputs": [],
      "stateMutability": "nonpayable",
      "type": "function"
    },
    {
      "inputs": [
        {
          "internalType": "bytes32",
          "name": "role",
          "type": "bytes32"
        },
        {
          "internalType": "address",
          "name": "account",
          "type": "address"
        }
      ],
      "name": "revokeRole",
      "outputs": [],
      "stateMutability": "nonpayable",
      "type": "function"
    },
    {
      "inputs": [],
      "name": "softCap",
      "outputs": [
        {
          "internalType": "uint256",
          "name": "",
          "type": "uint256"
        }
      ],
      "stateMutability": "view",
      "type": "function",
      "constant": true
    },
    {
      "inputs": [
        {
          "internalType": "bytes4",
          "name": "interfaceId",
          "type": "bytes4"
        }
      ],
      "name": "supportsInterface",
      "outputs": [
        {
          "internalType": "bool",
          "name": "",
          "type": "bool"
        }
      ],
      "stateMutability": "view",
      "type": "function",
      "constant": true
    },
    {
      "inputs": [],
      "name": "symbol",
      "outputs": [
        {
          "internalType": "string",
          "name": "",
          "type": "string"
        }
      ],
      "stateMutability": "view",
      "type": "function",
      "constant": true
    },
    {
      "inputs": [],
      "name": "tokenPrice",
      "outputs": [
        {
          "internalType": "uint256",
          "name": "",
          "type": "uint256"
        }
      ],
      "stateMutability": "view",
      "type": "function",
      "constant": true
    },
    {
      "inputs": [
        {
          "internalType": "address",
          "name": "",
          "type": "address"
        }
      ],
      "name": "tokensBought",
      "outputs": [
        {
          "internalType": "uint256",
          "name": "",
          "type": "uint256"
        }
      ],
      "stateMutability": "view",
      "type": "function",
      "constant": true
    },
    {
      "inputs": [],
      "name": "tokensSold",
      "outputs": [
        {
          "internalType": "uint256",
          "name": "",
          "type": "uint256"
        }
      ],
      "stateMutability": "view",
      "type": "function",
      "constant": true
    },
    {
      "inputs": [],
      "name": "totalSupply",
      "outputs": [
        {
          "internalType": "uint256",
          "name": "",
          "type": "uint256"
        }
      ],
      "stateMutability": "view",
      "type": "function",
      "constant": true
    },
    {
      "inputs": [
        {
          "internalType": "address",
          "name": "to",
          "type": "address"
        },
        {
          "internalType": "uint256",
          "name": "value",
          "type": "uint256"
        }
      ],
      "name": "transfer",
      "outputs": [
        {
          "internalType": "bool",
          "name": "",
          "type": "bool"
        }
      ],
      "stateMutability": "nonpayable",
      "type": "function"
    },
    {
      "inputs": [
        {
          "internalType": "address",
          "name": "from",
          "type": "address"
        },
        {
          "internalType": "address",
          "name": "to",
          "type": "address"
        },
        {
          "internalType": "uint256",
          "name": "value",
          "type": "uint256"
        }
      ],
      "name": "transferFrom",
      "outputs": [
        {
          "internalType": "bool",
          "name": "",
          "type": "bool"
        }
      ],
      "stateMutability": "nonpayable",
      "type": "function"
    },
    {
      "inputs": [
        {
          "internalType": "address",
          "name": "",
          "type": "address"
        }
      ],
      "name": "whitelisted",
      "outputs": [
        {
          "internalType": "bool",
          "name": "",
          "type": "bool"
        }
      ],
      "stateMutability": "view",
      "type": "function",
      "constant": true
    },
    {
      "inputs": [
        {
          "internalType": "address",
          "name": "to",
          "type": "address"
        },
        {
          "internalType": "uint256",
          "name": "amount",
          "type": "uint256"
        }
      ],
      "name": "mint",
      "outputs": [],
      "stateMutability": "nonpayable",
      "type": "function"
    },
    {
      "inputs": [],
      "name": "getRate",
      "outputs": [
        {
          "internalType": "uint256",
          "name": "",
          "type": "uint256"
        }
      ],
      "stateMutability": "view",
      "type": "function",
      "constant": true
    },
    {
      "inputs": [],
      "name": "getOverview",
      "outputs": [
        {
          "internalType": "string",
          "name": "_name",
          "type": "string"
        },
        {
          "internalType": "string",
          "name": "_symbol",
          "type": "string"
        },
        {
          "internalType": "uint8",
          "name": "_decimals",
          "type": "uint8"
        },
        {
          "internalType": "uint256",
          "name": "_totalSupply",
          "type": "uint256"
        },
        {
          "internalType": "uint256",
          "name": "_tokenPrice",
          "type": "uint256"
        },
        {
          "internalType": "uint256",
          "name": "_hardCap",
          "type": "uint256"
        },
        {
          "internalType": "uint256",
          "name": "_softCap",
          "type": "uint256"
        },
        {
          "internalType": "uint256",
          "name": "_tokensSold",
          "type": "uint256"
        },
        {
          "internalType": "uint256",
          "name": "_opensAt",
          "type": "uint256"
        },
        {
          "internalType": "uint256",
          "name": "_closesAt",
          "type": "uint256"
        },
        {
          "internalType": "bool",
          "name": "_isOpen",
          "type": "bool"
        }
      ],
      "stateMutability": "view",
      "type": "function",
      "constant": true
    },
    {
      "inputs": [
        {
          "internalType": "address",
          "name": "buyer",
          "type": "address"
        }
      ],
      "name": "getAddressInfo",
      "outputs": [
        {
          "internalType": "bool",
          "name": "isWhitelisted",
          "type": "bool"
        },
        {
          "internalType": "uint256",
          "name": "buyerTokens",
          "type": "uint256"
        }
      ],
      "stateMutability": "view",
      "type": "function",
      "constant": true
    }
  ],
  "bytecode": "0x610160604052346200007a576200001f6200001962000153565b620004b0565b6200002962000080565b612a3562000f8a8239608051816121a3015260a051816121da015260c0518161216a015260e05181612291015261010051816122b601526101205181612473015261014051816127510152612a3590f35b62000086565b60405190565b5f80fd5b601f801991011690565b634e487b7160e01b5f52604160045260245ffd5b90620000b4906200008a565b810190811060018060401b03821117620000cd57604052565b62000094565b90620000ea620000e262000080565b9283620000a8565b565b5f80fd5b60018060a01b031690565b6200010690620000f0565b90565b6200011481620000fb565b036200011c57565b5f80fd5b905051906200012f8262000109565b565b906020828203126200014d576200014a915f0162000120565b90565b620000ec565b62000176620039bf803803806200016a81620000d3565b92833981019062000131565b90565b60018060401b0381116200019857620001946020916200008a565b0190565b62000094565b90620001b4620001ae8362000179565b620000d3565b918252565b5f7f4469616d6f6e644e69616d000000000000000000000000000000000000000000910152565b620001ec600b6200019e565b90620001fb60208301620001b9565b565b62000207620001e0565b90565b5f7f444e4d0000000000000000000000000000000000000000000000000000000000910152565b6200023d60036200019e565b906200024c602083016200020a565b565b6200025862000231565b90565b5f1b90565b906200026e5f19916200025b565b9181191691161790565b90565b90565b90565b6200029a62000294620002a09262000278565b6200027e565b6200027b565b90565b90565b90620002c0620002ba620002c89262000281565b620002a3565b825462000260565b9055565b90565b620002e8620002e2620002ee92620002cc565b6200027e565b6200027b565b90565b906200030b620003056200031392620002cf565b620002a3565b825462000260565b9055565b90565b620003336200032d620003399262000317565b6200027e565b6200027b565b90565b9062000356620003506200035e926200031a565b620002a3565b825462000260565b9055565b90565b6200037e62000378620003849262000362565b6200027e565b6200027b565b90565b90620003a16200039b620003a99262000365565b620002a3565b825462000260565b9055565b620003c6620003c0620003cc926200027b565b6200027e565b6200027b565b90565b90620003e9620003e3620003f192620003ad565b620002a3565b825462000260565b9055565b90565b620004116200040b6200041792620003f5565b6200027e565b6200027b565b90565b634e487b7160e01b5f52601160045260245ffd5b6200044062000447919392936200027b565b926200027b565b82018092116200045357565b6200041a565b90565b620004756200046f6200047b9262000362565b6200025b565b62000459565b90565b620004895f6200045c565b90565b7f9f2df0fed2c77648de5860a4cc508cd0818c85b8b8a1ab4ceeef8d981c8956a690565b6200058690620004de620004c3620001fd565b620004cd620001fd565b620004d76200024e565b91620005da565b620004ed6103e8600b620002a6565b6200050166038d7ea4c68000600c620002f1565b62000510612710600d6200033c565b6200051f6103e8600e620002a6565b6200052c5f600f62000387565b62000539426010620003cf565b6200055f62000557426200055062093a80620003f8565b906200042e565b6011620003cf565b620005756200056d6200047e565b829062000a61565b50620005806200048c565b62000a61565b50565b5f7f3100000000000000000000000000000000000000000000000000000000000000910152565b620005bc60016200019e565b90620005cb6020830162000589565b565b620005d7620005b0565b90565b90620005f29291620005eb620005cd565b90620005f4565b565b906200060293929162000652565b565b90565b90565b60200190565b5190565b6200062d620006276200063392620000f0565b6200027e565b620000f0565b90565b620006419062000614565b90565b6200064f9062000636565b90565b62000667620006c594620006a5939462000701565b6200067f8162000678600662000604565b9062000bfa565b610120526200069b8362000694600762000604565b9062000bfa565b6101405262000607565b620006bb620006b48262000610565b916200060a565b2060e05262000607565b620006db620006d48262000610565b916200060a565b20610100524660a052620006ee62000f04565b608052620006fc3062000644565b60c052565b906200070d916200070f565b565b906200071b916200071d565b565b9062000729916200099c565b565b5190565b634e487b7160e01b5f52602260045260245ffd5b906001600283049216801562000766575b60208310146200076057565b6200072f565b91607f169162000754565b5f5260205f2090565b601f602091010490565b1b90565b91906008620007a7910291620007a05f198462000784565b9262000784565b9181191691161790565b9190620007cc620007c6620007d593620003ad565b620002a3565b90835462000788565b9055565b5f90565b620007f391620007ec620007d9565b91620007b1565b565b5b81811062000802575050565b80620008115f600193620007dd565b01620007f6565b9190601f811162000829575b505050565b62000838620008639362000771565b90602062000846846200077a565b830193106200086c575b6200085b906200077a565b0190620007f5565b5f808062000824565b91506200085b8192905062000850565b1c90565b9062000892905f19906008026200087c565b191690565b81620008a39162000880565b906002021790565b90620008b7816200072b565b9060018060401b0382116200098857620008de82620008d7855462000743565b8562000818565b602090601f8311600114620009175791809162000905935f926200090a575b505062000897565b90555b565b90915001515f80620008fd565b601f19831691620009288562000771565b925f5b8181106200096f5750916002939185600196941062000952575b5050500201905562000908565b62000964910151601f84169062000880565b90555f808062000945565b919360206001819287870151815501950192016200092b565b62000094565b906200099a91620008ab565b565b90620009ae620009b69260036200098e565b60046200098e565b565b5f90565b151590565b620009cc9062000459565b90565b90620009db90620009c1565b5f5260205260405f2090565b620009f29062000636565b90565b9062000a0190620009e7565b5f5260205260405f2090565b9062000a1b60ff916200025b565b9181191691161790565b62000a3090620009bc565b90565b90565b9062000a5062000a4a62000a589262000a25565b62000a33565b825462000a0d565b9055565b5f0190565b62000a6b620009b8565b5062000a8462000a7d82849062000b58565b15620009bc565b5f1462000b205762000ab3600162000aad5f62000aa460058690620009cf565b018590620009f5565b62000a36565b9062000abe62000b8e565b9062000b0162000afa62000af37f2f8788117e7eff1d82e926ec794901d17c78024a50270940304540a733656f0d95620009c1565b92620009e7565b92620009e7565b9262000b0c62000080565b8062000b188162000a5c565b0390a4600190565b50505f90565b5f1c90565b60ff1690565b62000b4062000b469162000b26565b62000b2b565b90565b62000b55905462000b31565b90565b62000b87915f62000b7a62000b819362000b71620009b8565b506005620009cf565b01620009f5565b62000b49565b90565b5f90565b62000b9862000b8a565b503390565b5f90565b90565b62000bbd62000bb762000bc39262000ba1565b6200027e565b6200027b565b90565b90565b62000be262000bdc62000be89262000bc6565b6200025b565b62000459565b90565b62000bf760ff62000bc9565b90565b9062000c0562000b9d565b5062000c1b62000c158362000607565b62000610565b62000c3262000c2b602062000ba4565b916200027b565b105f1462000c49575062000c469062000db2565b90565b5f62000c5a62000c61939262000e55565b016200098e565b62000c7562000c6f62000beb565b620009c1565b90565b90565b62000c9462000c8e62000c9a9262000c78565b6200027e565b6200027b565b90565b60209181520190565b5f5b83811062000cb9575050905f910152565b80602091830151818501520162000ca8565b62000cf062000cfa60209362000d009362000ce6816200072b565b9384809362000c9d565b9586910162000ca6565b6200008a565b0190565b62000d1b9160208201915f81840391015262000ccb565b90565b62000d2a905162000459565b90565b62000d4d62000d4762000d408362000610565b926200060a565b62000d1e565b906020811062000d5c575b5090565b62000d70905f199060200360080262000784565b165f62000d58565b62000d8762000d8d9162000b26565b620003ad565b90565b62000da962000da362000daf926200027b565b6200025b565b62000459565b90565b62000dbc62000b9d565b5062000dc88162000607565b9062000dd48262000610565b62000deb62000de4601f62000c7b565b916200027b565b1162000e2b575062000e228162000e1b62000e1462000e0e62000e289562000d2d565b62000d78565b9162000610565b1762000d90565b620009c1565b90565b62000e519062000e3a62000080565b91829163305a27a960e01b83526004830162000d04565b0390fd5b90565b5f90565b7f8b73c3c69bb8fe3d512ecc4cf759cc79239f7b179b0ffacaa9a75d522b39400f90565b62000e8b9062000459565b9052565b62000e9a906200027b565b9052565b62000ea990620000fb565b9052565b9095949262000f029462000eef62000efa9262000ee460809662000ed960a088019c5f89019062000e80565b602087019062000e80565b604085019062000e80565b606083019062000e8f565b019062000e9e565b565b62000f0e62000e58565b5062000f1962000e5c565b62000f6f62000f2960e062000d1e565b9162000f5f62000f3b61010062000d1e565b4662000f473062000644565b9162000f5262000080565b9687956020870162000ead565b60208201810382520382620000a8565b62000f8562000f7e8262000610565b916200060a565b209056fe60806040526004361015610013575b6110b1565b61001d5f3561023c565b806301ffc9a71461023757806306fdde0314610232578063095ea7b31461022d57806318160ddd1461022857806320443e8d1461022357806323b872dd1461021e578063248a9ca314610219578063264d7797146102145780632c4e722e1461020f5780632f2ff15d1461020a578063313ce567146102055780633644e5151461020057806336568abe146101fb57806339a3a99a146101f657806340c10f19146101f1578063518ab2a8146101ec578063679aefce146101e757806370a08231146101e25780637ecebe00146101dd5780637ff9b596146101d857806384b0196e146101d3578063906a26e0146101ce57806391d14854146101c957806395d89b41146101c45780639eaf08c1146101bf578063a217fddf146101ba578063a9059cbb146101b5578063d505accf146101b0578063d5391393146101ab578063d547741f146101a6578063d936547e146101a1578063dd62ed3e1461019c578063ebb00796146101975763fb86a4040361000e5761107c565b611037565b610fde565b610f7c565b610eed565b610eb8565b610e4f565b610d86565b610d51565b610ce1565b610c9d565b610c67565b610c32565b610be7565b610a93565b610a4f565b610a1a565b6109e5565b6109b0565b61096d565b610938565b6108f5565b6108c0565b61088b565b610842565b6107db565b610797565b6106b1565b610615565b610599565b6104a5565b61044d565b61038b565b6102c4565b60e01c90565b60405190565b5f80fd5b5f80fd5b63ffffffff60e01b1690565b61026581610250565b0361026c57565b5f80fd5b9050359061027d8261025c565b565b9060208282031261029857610295915f01610270565b90565b61024c565b151590565b6102ab9061029d565b9052565b91906102c2905f602085019401906102a2565b565b346102f4576102f06102df6102da36600461027f565b6110b9565b6102e7610242565b918291826102af565b0390f35b610248565b5f91031261030357565b61024c565b5190565b60209181520190565b5f5b838110610327575050905f910152565b806020918301518185015201610317565b601f801991011690565b61036161036a60209361036f9361035881610308565b9384809361030c565b95869101610315565b610338565b0190565b6103889160208201915f818403910152610342565b90565b346103bb5761039b3660046102f9565b6103b76103a66115d5565b6103ae610242565b91829182610373565b0390f35b610248565b60018060a01b031690565b6103d4906103c0565b90565b6103e0816103cb565b036103e757565b5f80fd5b905035906103f8826103d7565b565b90565b610406816103fa565b0361040d57565b5f80fd5b9050359061041e826103fd565b565b9190604083820312610448578061043c610445925f86016103eb565b93602001610411565b90565b61024c565b3461047e5761047a610469610463366004610420565b906116f3565b610471610242565b918291826102af565b0390f35b610248565b61048c906103fa565b9052565b91906104a3905f60208501940190610483565b565b346104d5576104b53660046102f9565b6104d16104c061165f565b6104c8610242565b91829182610490565b0390f35b610248565b60ff1690565b6104e9906104da565b9052565b989694929b9a9997959391906101608a018a81035f8c015261050e91610342565b89810360208b015261051f91610342565b9a6040890161052d916104e0565b6060880161053a91610483565b6080870161054791610483565b60a0860161055491610483565b60c0850161056191610483565b60e0840161056e91610483565b610100830161057c91610483565b610120820161058a91610483565b61014001610597916102a2565b565b346105d6576105a93660046102f9565b6105d26105b46128f4565b976105c99b999b979197969296959395610242565b9b8c9b8c6104ed565b0390f35b610248565b90916060828403126106105761060d6105f6845f85016103eb565b9361060481602086016103eb565b93604001610411565b90565b61024c565b346106465761064261063161062b3660046105db565b91611715565b610639610242565b918291826102af565b0390f35b610248565b90565b6106578161064b565b0361065e57565b5f80fd5b9050359061066f8261064e565b565b9060208282031261068a57610687915f01610662565b90565b61024c565b6106989061064b565b9052565b91906106af905f6020850194019061068f565b565b346106e1576106dd6106cc6106c7366004610671565b611193565b6106d4610242565b9182918261069c565b0390f35b610248565b906020828203126106ff576106fc915f016103eb565b90565b61024c565b90565b61071b610716610720926103c0565b610704565b6103c0565b90565b61072c90610707565b90565b61073890610723565b90565b906107459061072f565b5f5260205260405f2090565b1c90565b90565b61076890600861076d9302610751565b610755565b90565b9061077b9154610758565b90565b6107949061078f6009915f9261073b565b610770565b90565b346107c7576107c36107b26107ad3660046106e6565b61077e565b6107ba610242565b91829182610490565b0390f35b610248565b6107d8600b5f90610770565b90565b3461080b576107eb3660046102f9565b6108076107f66107cc565b6107fe610242565b91829182610490565b0390f35b610248565b9190604083820312610838578061082c610835925f8601610662565b936020016103eb565b90565b61024c565b5f0190565b346108715761085b610855366004610810565b906111df565b610863610242565b8061086d8161083d565b0390f35b610248565b9190610889905f602085019401906104e0565b565b346108bb5761089b3660046102f9565b6108b76108a6611624565b6108ae610242565b91829182610876565b0390f35b610248565b346108f0576108d03660046102f9565b6108ec6108db611e01565b6108e3610242565b9182918261069c565b0390f35b610248565b346109245761090e610908366004610810565b9061129a565b610916610242565b806109208161083d565b0390f35b610248565b61093560115f90610770565b90565b34610968576109483660046102f9565b610964610953610929565b61095b610242565b91829182610490565b0390f35b610248565b3461099c57610986610980366004610420565b9061286d565b61098e610242565b806109988161083d565b0390f35b610248565b6109ad600f5f90610770565b90565b346109e0576109c03660046102f9565b6109dc6109cb6109a1565b6109d3610242565b91829182610490565b0390f35b610248565b34610a15576109f53660046102f9565b610a11610a006128de565b610a08610242565b91829182610490565b0390f35b610248565b34610a4a57610a46610a35610a303660046106e6565b611675565b610a3d610242565b91829182610490565b0390f35b610248565b34610a7f57610a7b610a6a610a653660046106e6565b611dec565b610a72610242565b91829182610490565b0390f35b610248565b610a90600c5f90610770565b90565b34610ac357610aa33660046102f9565b610abf610aae610a84565b610ab6610242565b91829182610490565b0390f35b610248565b60ff60f81b1690565b610ada90610ac8565b9052565b610ae7906103cb565b9052565b5190565b60209181520190565b60200190565b610b07906103fa565b9052565b90610b1881602093610afe565b0190565b60200190565b90610b3f610b39610b3284610aeb565b8093610aef565b92610af8565b905f5b818110610b4f5750505090565b909192610b68610b626001928651610b0b565b94610b1c565b9101919091610b42565b93959194610bc3610bb8610bd795610baa610bcd95610be49c9a610b9d60e08c01925f8d0190610ad1565b8a820360208c0152610342565b9088820360408a0152610342565b976060870190610483565b6080850190610ade565b60a083019061068f565b60c0818403910152610b22565b90565b34610c1e57610bf73660046102f9565b610c1a610c026123d8565b93610c11979597939193610242565b97889788610b72565b0390f35b610248565b610c2f600e5f90610770565b90565b34610c6257610c423660046102f9565b610c5e610c4d610c23565b610c55610242565b91829182610490565b0390f35b610248565b34610c9857610c94610c83610c7d366004610810565b90611141565b610c8b610242565b918291826102af565b0390f35b610248565b34610ccd57610cad3660046102f9565b610cc9610cb86115eb565b610cc0610242565b91829182610373565b0390f35b610248565b610cde60105f90610770565b90565b34610d1157610cf13660046102f9565b610d0d610cfc610cd2565b610d04610242565b91829182610490565b0390f35b610248565b90565b5f1b90565b610d32610d2d610d3792610d16565b610d19565b61064b565b90565b610d435f610d1e565b90565b610d4e610d3a565b90565b34610d8157610d613660046102f9565b610d7d610d6c610d46565b610d74610242565b9182918261069c565b0390f35b610248565b34610db757610db3610da2610d9c366004610420565b90611693565b610daa610242565b918291826102af565b0390f35b610248565b610dc5816104da565b03610dcc57565b5f80fd5b90503590610ddd82610dbc565b565b60e081830312610e4a57610df5825f83016103eb565b92610e0383602084016103eb565b92610e118160408501610411565b92610e1f8260608301610411565b92610e47610e308460808501610dd0565b93610e3e8160a08601610662565b9360c001610662565b90565b61024c565b34610e8457610e6e610e62366004610ddf565b95949094939193611cea565b610e76610242565b80610e808161083d565b0390f35b610248565b7f9f2df0fed2c77648de5860a4cc508cd0818c85b8b8a1ab4ceeef8d981c8956a690565b610eb5610e89565b90565b34610ee857610ec83660046102f9565b610ee4610ed3610ead565b610edb610242565b9182918261069c565b0390f35b610248565b34610f1c57610f06610f00366004610810565b9061128e565b610f0e610242565b80610f188161083d565b0390f35b610248565b90610f2b9061072f565b5f5260205260405f2090565b60ff1690565b610f4d906008610f529302610751565b610f37565b90565b90610f609154610f3d565b90565b610f7990610f74600a915f92610f21565b610f55565b90565b34610fac57610fa8610f97610f923660046106e6565b610f63565b610f9f610242565b918291826102af565b0390f35b610248565b9190604083820312610fd95780610fcd610fd6925f86016103eb565b936020016103eb565b90565b61024c565b3461100f5761100b610ffa610ff4366004610fb1565b906116cb565b611002610242565b91829182610490565b0390f35b610248565b91602061103592949361102e60408201965f8301906102a2565b0190610483565b565b346110685761104f61104a3660046106e6565b6129c2565b9061106461105b610242565b92839283611014565b0390f35b610248565b611079600d5f90610770565b90565b346110ac5761108c3660046102f9565b6110a861109761106d565b61109f610242565b91829182610490565b0390f35b610248565b5f80fd5b5f90565b6110c16110b5565b50806110dc6110d6637965db0b60e01b610250565b91610250565b149081156110e9575b5090565b6110f391506127c4565b5f6110e5565b6111029061064b565b90565b9061110f906110f9565b5f5260205260405f2090565b5f1c90565b61112c6111319161111b565b610f37565b90565b61113e9054611120565b90565b611168915f61115d611163936111556110b5565b506005611105565b01610f21565b611134565b90565b5f90565b90565b61117e6111839161111b565b61116f565b90565b6111909054611172565b90565b60016111ac6111b2926111a461116b565b506005611105565b01611186565b90565b906111d0916111cb6111c682611193565b6111eb565b6111d2565b565b906111dc9161132e565b50565b906111e9916111b5565b565b6111fd906111f7611e19565b90611222565b565b91602061122092949361121960408201965f830190610ade565b019061068f565b565b90611237611231838390611141565b1561029d565b61123f575050565b61126061124a610242565b92839263e2517d3f60e01b8452600484016111ff565b0390fd5b9061127f9161127a61127582611193565b6111eb565b611281565b565b9061128b916113da565b50565b9061129891611264565b565b90806112b56112af6112aa611e19565b6103cb565b916103cb565b036112c6576112c3916113da565b50565b6112ce610242565b63334bd91960e11b8152806112e56004820161083d565b0390fd5b906112f560ff91610d19565b9181191691161790565b6113089061029d565b90565b90565b9061132361131e61132a926112ff565b61130b565b82546112e9565b9055565b6113366110b5565b5061134b611345828490611141565b1561029d565b5f146113d457611373600161136e5f61136660058690611105565b018590610f21565b61130e565b9061137c611e19565b906113b96113b36113ad7f2f8788117e7eff1d82e926ec794901d17c78024a50270940304540a733656f0d956110f9565b9261072f565b9261072f565b926113c2610242565b806113cc8161083d565b0390a4600190565b50505f90565b6113e26110b5565b506113ee818390611141565b5f14611476576114155f6114105f61140860058690611105565b018590610f21565b61130e565b9061141e611e19565b9061145b61145561144f7ff6391f5c32d9c69d2a47ea670b442974b53935d1edc7fd64eb21e047a839171b956110f9565b9261072f565b9261072f565b92611464610242565b8061146e8161083d565b0390a4600190565b50505f90565b606090565b634e487b7160e01b5f52602260045260245ffd5b90600160028304921680156114b5575b60208310146114b057565b611481565b91607f16916114a5565b60209181520190565b5f5260205f2090565b905f92918054906114eb6114e483611495565b80946114bf565b916001811690815f146115425750600114611506575b505050565b61151391929394506114c8565b915f925b81841061152a57505001905f8080611501565b60018160209295939554848601520191019290611517565b92949550505060ff19168252151560200201905f8080611501565b90611567916114d1565b90565b634e487b7160e01b5f52604160045260245ffd5b9061158890610338565b810190811067ffffffffffffffff8211176115a257604052565b61156a565b906115c76115c0926115b7610242565b9384809261155d565b038361157e565b565b6115d2906115a7565b90565b6115dd61147c565b506115e860036115c9565b90565b6115f361147c565b506115fe60046115c9565b90565b5f90565b90565b61161c61161761162192611605565b610704565b6104da565b90565b61162c611601565b506116376012611608565b90565b5f90565b61164a61164f9161111b565b610755565b90565b61165c905461163e565b90565b61166761163a565b506116726002611652565b90565b61168b6116909161168461163a565b505f61073b565b611652565b90565b6116b09161169f6110b5565b506116a8611e19565b919091611781565b600190565b906116bf9061072f565b5f5260205260405f2090565b6116f0916116e66116eb926116de61163a565b5060016116b5565b61073b565b611652565b90565b611710916116ff6110b5565b50611708611e19565b919091611a7e565b600190565b9161173f926117226110b5565b5061173761172e611e19565b82908491611bab565b919091611781565b600190565b61175861175361175d92610d16565b610704565b6103c0565b90565b61176990611744565b90565b919061177f905f60208501940190610ade565b565b918261179d6117976117925f611760565b6103cb565b916103cb565b146117fe57816117bd6117b76117b25f611760565b6103cb565b916103cb565b146117d0576117ce92919091611908565b565b6117fa6117dc5f611760565b6117e4610242565b91829163ec442f0560e01b83526004830161176c565b0390fd5b61182861180a5f611760565b611812610242565b918291634b637e8f60e11b83526004830161176c565b0390fd5b60409061185561185c949695939661184b60608401985f850190610ade565b6020830190610483565b0190610483565b565b9061186991036103fa565b90565b906118785f1991610d19565b9181191691161790565b61189661189161189b926103fa565b610704565b6103fa565b90565b90565b906118b66118b16118bd92611882565b61189e565b825461186c565b9055565b634e487b7160e01b5f52601160045260245ffd5b6118e46118ea919392936103fa565b926103fa565b82018092116118f557565b6118c1565b9061190591016103fa565b90565b9190918061192661192061191b5f611760565b6103cb565b916103cb565b145f14611a075761194a6119438361193e6002611652565b6118d5565b60026118a1565b5b8261196661196061195b5f611760565b6103cb565b916103cb565b145f146119db5761198a6119838361197e6002611652565b61185e565b60026118a1565b5b9190916119d66119c46119be7fddf252ad1be2c89b69c2b068fc378daa952ba7f163c4a11628f55a4df523b3ef9361072f565b9361072f565b936119cd610242565b91829182610490565b0390a3565b611a02826119fc6119ed5f879061073b565b916119f783611652565b6118fa565b906118a1565b61198b565b611a1a611a155f839061073b565b611652565b80611a2d611a27856103fa565b916103fa565b10611a5557611a40611a5091849061185e565b611a4b5f849061073b565b6118a1565b61194b565b90611a7a909192611a64610242565b93849363391434e360e21b85526004850161182c565b0390fd5b91611a8c9291600192611a8e565b565b909281611aab611aa5611aa05f611760565b6103cb565b916103cb565b14611b7d5783611acb611ac5611ac05f611760565b6103cb565b916103cb565b14611b4f57611aef83611aea611ae3600186906116b5565b879061073b565b6118a1565b611af9575b505050565b919091611b44611b32611b2c7f8c5be1e5ebec7d5bd14f71427d1e84f3dd0314c0f7b2291e5b200ac8c7c3b9259361072f565b9361072f565b93611b3b610242565b91829182610490565b0390a35f8080611af4565b611b79611b5b5f611760565b611b63610242565b918291634a1406b160e11b83526004830161176c565b0390fd5b611ba7611b895f611760565b611b91610242565b91829163e602df0560e01b83526004830161176c565b0390fd5b929192611bb98183906116cb565b9081611bce611bc85f196103fa565b916103fa565b10611bdb575b5050509050565b81611bee611be8876103fa565b916103fa565b10611c1457611c0b9394611c0391939261185e565b905f92611a8e565b805f8080611bd4565b50611c3a84929192611c24610242565b938493637dc7a0d960e11b85526004850161182c565b0390fd5b7f6e71edae12b1b97f4d1f60370fef10105fa2faae0126114a169c64845d6126c990565b9194611caa611cb492989795611ca060a096611c96611cbb9a611c8c60c08a019e5f8b019061068f565b6020890190610ade565b6040870190610ade565b6060850190610483565b6080830190610483565b0190610483565b565b60200190565b5190565b916020611ce8929493611ce160408201965f830190610ade565b0190610ade565b565b969591939294909442611d05611cff836103fa565b916103fa565b11611dc65790611d6e611d77949392611d56611d1f611c3e565b611d478c80948c91611d318d91611e54565b9192611d3b610242565b97889660208801611c62565b6020820181038252038261157e565b611d68611d6282611cc3565b91611cbd565b20612319565b92909192611e87565b80611d8a611d84876103cb565b916103cb565b03611d9f5750611d9d9293919091611a7e565b565b8490611dc2611dac610242565b9283926325c0072360e11b845260048401611cc7565b0390fd5b611de890611dd2610242565b91829163313c898160e11b835260048301610490565b0390fd5b611dfe90611df861163a565b50611e26565b90565b611e0961116b565b50611e12612150565b90565b5f90565b611e21611e15565b503390565b611e3d611e4291611e3561163a565b50600861073b565b611652565b90565b6001611e5191016103fa565b90565b611e6890611e6061163a565b50600861073b565b611e84611e7482611652565b91611e7e83611e45565b906118a1565b90565b92611ea292611eab94611e98611e15565b5092909192611f33565b9092919261205e565b90565b5f90565b611ebe611ec39161111b565b611882565b90565b90565b611edd611ed8611ee292611ec6565b610704565b6103fa565b90565b611f1a611f2194611f10606094989795611f06608086019a5f87019061068f565b60208501906104e0565b604083019061068f565b019061068f565b565b611f2b610242565b3d5f823e3d90fd5b939293611f3e611e15565b50611f47611eae565b50611f5061116b565b50611f5a85611eb2565b611f8c611f867f7fffffffffffffffffffffffffffffff5d576e7357a4501ddfe92f46681b20a0611ec9565b916103fa565b116120195790611faf602094955f94939293611fa6610242565b94859485611ee5565b838052039060015afa1561201457611fc75f51610d19565b80611fe2611fdc611fd75f611760565b6103cb565b916103cb565b14611ff8575f91611ff25f610d1e565b91929190565b506120025f611760565b60019161200e5f610d1e565b91929190565b611f23565b5050506120255f611760565b9060039291929190565b634e487b7160e01b5f52602160045260245ffd5b6004111561204d57565b61202f565b9061205c82612043565b565b8061207161206b5f612052565b91612052565b145f1461207c575050565b8061209061208a6001612052565b91612052565b145f146120ba5761209f610242565b63f645eedf60e01b8152806120b66004820161083d565b0390fd5b806120ce6120c86002612052565b91612052565b145f14612103576120ff6120e183611eb2565b6120e9610242565b91829163fce698f760e01b835260048301610490565b0390fd5b6121166121106003612052565b91612052565b1461211e5750565b6121409061212a610242565b9182916335e2f38360e21b83526004830161069c565b0390fd5b61214d90610723565b90565b61215861116b565b5061216230612144565b61219461218e7f00000000000000000000000000000000000000000000000000000000000000006103cb565b916103cb565b14806121d0575b5f146121c5577f000000000000000000000000000000000000000000000000000000000000000090565b6121cd61227b565b90565b50466122046121fe7f00000000000000000000000000000000000000000000000000000000000000006103fa565b916103fa565b1461219b565b7f8b73c3c69bb8fe3d512ecc4cf759cc79239f7b179b0ffacaa9a75d522b39400f90565b90959492612279946122686122729261225e60809661225460a088019c5f89019061068f565b602087019061068f565b604085019061068f565b6060830190610483565b0190610ade565b565b61228361116b565b5061228c61220a565b6123037f0000000000000000000000000000000000000000000000000000000000000000916122f47f0000000000000000000000000000000000000000000000000000000000000000466122df30612144565b916122e8610242565b9687956020870161222e565b6020820181038252038261157e565b61231561230f82611cc3565b91611cbd565b2090565b6123339061232561116b565b5061232e612150565b612783565b90565b5f90565b606090565b61235361234e61235892610d16565b610704565b6103fa565b90565b9061236e612367610242565b928361157e565b565b67ffffffffffffffff81116123885760208091020190565b61156a565b9061239f61239a83612370565b61235b565b918252565b369037565b906123ce6123b68361238d565b926020806123c48693612370565b92019103906123a4565b565b600f60f81b90565b6123e0612336565b506123e961147c565b506123f261147c565b506123fb61163a565b50612404611e15565b5061240d61116b565b5061241661233a565b5061241f612465565b90612428612743565b90469061243430612144565b9061243e5f610d1e565b9061245061244b5f61233f565b6123a9565b906124596123d0565b96959493929190565b90565b61246d61147c565b506124a27f000000000000000000000000000000000000000000000000000000000000000061249c6006612462565b906125a1565b90565b90565b6124bc6124b76124c1926124a5565b610d19565b61064b565b90565b6124ce60ff6124a8565b90565b5f5260205f2090565b905f92918054906124f46124ed83611495565b80946114bf565b916001811690815f1461254b575060011461250f575b505050565b61251c91929394506124d1565b915f925b81841061253357505001905f808061250a565b60018160209295939554848601520191019290612520565b92949550505060ff19168252151560200201905f808061250a565b90612570916124da565b90565b9061259361258c92612583610242565b93848092612566565b038361157e565b565b61259e90612573565b90565b906125aa61147c565b506125b4826110f9565b6125cd6125c76125c26124c4565b61064b565b9161064b565b14155f146125e257506125df90612674565b90565b6125ec9150612595565b90565b90565b61260661260161260b926125ef565b610704565b6103fa565b90565b67ffffffffffffffff811161262c57612628602091610338565b0190565b61156a565b9061264361263e8361260e565b61235b565b918252565b369037565b9061267261265a83612631565b92602080612668869361260e565b9201910390612648565b565b61267c61147c565b50612686816126df565b9061269961269460206125f2565b61264d565b918252602082015290565b6126b86126b36126bd926124a5565b610704565b6103fa565b90565b90565b6126d76126d26126dc926126c0565b610704565b6103fa565b90565b6126f46126f9916126ee61163a565b506110f9565b611eb2565b61270360ff6126a4565b1680612718612712601f6126c3565b916103fa565b116127205790565b612728610242565b632cd44ac360e21b81528061273f6004820161083d565b0390fd5b61274b61147c565b506127807f000000000000000000000000000000000000000000000000000000000000000061277a6007612462565b906125a1565b90565b60429161278e61116b565b50604051917f19010000000000000000000000000000000000000000000000000000000000008352600283015260228201522090565b6127cc6110b5565b506127e66127e06301ffc9a760e01b610250565b91610250565b1490565b90612804916127ff6127fa610e89565b6111eb565b612806565b565b61285961286b92612818838290612879565b61283561282e82612829600f611652565b6118d5565b600f6118a1565b6128536128446009859061073b565b9161284e83611652565b6118d5565b906118a1565b612866600191600a610f21565b61130e565b565b90612877916127ea565b565b8061289461288e6128895f611760565b6103cb565b916103cb565b146128b0576128ae916128a65f611760565b919091611908565b565b6128da6128bc5f611760565b6128c4610242565b91829163ec442f0560e01b83526004830161176c565b0390fd5b6128e661163a565b506128f1600b611652565b90565b6128fc61147c565b5061290561147c565b5061290e611601565b5061291761163a565b5061292061163a565b5061292961163a565b5061293261163a565b5061293b61163a565b5061294461163a565b5061294d61163a565b506129566110b5565b5061295f6115d5565b906129686115eb565b90612971611624565b9061297a61165f565b90612985600c611652565b90612990600d611652565b9061299b600e611652565b906129a6600f611652565b906129b16010611652565b906129bc6011611652565b90600190565b906129cb6110b5565b506129d461163a565b506129fc6129f76129ef6129ea600a8690610f21565b611134565b93600961073b565b611652565b9056fea2646970667358221220fb45e8bff5f36e439696a9c0413f63a5d4f0f791aa4d9bf5da5bc04358b8943f64736f6c63430008150033",
  "immutableReferences": {
    "5387": [
      {
        "length": 32,
        "start": 8611
      }
    ],
    "5389": [
      {
        "length": 32,
        "start": 8666
      }
    ],
    "5391": [
      {
        "length": 32,
        "start": 8554
      }
    ],
    "5393": [
      {
        "length": 32,
        "start": 8849
      }
    ],
    "5395": [
      {
        "length": 32,
        "start": 8886
      }
    ],
    "5398": [
      {
        "length": 32,
        "start": 9331
      }
    ],
    "5401": [
      {
        "length": 32,
        "start": 10065
      }
    ]
  },
  "source": "// SPDX-License-Identifier: MIT\npragma solidity ^0.8.0;\n\nimport { ERC20 } from \"@openzeppelin/contracts/token/ERC20/ERC20.sol\";\nimport { ERC20Permit } from \"@openzeppelin/contracts/token/ERC20/extensions/ERC20Permit.sol\";\nimport { AccessControl } from \"@openzeppelin/contracts/access/AccessControl.sol\";\n\ncontract Token is ERC20, AccessControl, ERC20Permit {\n  bytes32 public constant MINTER_ROLE = keccak256(\"MINTER_ROLE\");\n\n  mapping(address => uint256) public tokensBought;\n  mapping(address => bool) public whitelisted;\n\n  uint256 public rate = 1000; // 1 ETH = 1000 tokens\n  uint256 public tokenPrice = 1e15; // 0.001 ETH\n  uint256 public hardCap = 10000; // 10000 tokens\n  uint256 public softCap = 1000; // 1000 tokens\n  uint256 public tokensSold = 0;\n  uint256 public opensAt = block.timestamp;\n  uint256 public closesAt = block.timestamp + 7 days;\n\n  constructor(address initialOwner) ERC20(\"DiamondNiam\", \"DNM\") ERC20Permit(\"DiamondNiam\") {\n    _grantRole(DEFAULT_ADMIN_ROLE, initialOwner);\n    _grantRole(MINTER_ROLE, initialOwner);\n  }\n\n  function mint(address to, uint256 amount) public onlyRole(MINTER_ROLE) {\n    _mint(to, amount);\n    tokensSold += amount;\n    tokensBought[to] += amount;\n    whitelisted[to] = true;\n  }\n\n  function getRate() external view returns (uint256) {\n    return rate;\n  }\n\n  function getOverview()\n    external\n    view\n    returns (\n      string memory _name,\n      string memory _symbol,\n      uint8 _decimals,\n      uint256 _totalSupply,\n      uint256 _tokenPrice,\n      uint256 _hardCap,\n      uint256 _softCap,\n      uint256 _tokensSold,\n      uint256 _opensAt,\n      uint256 _closesAt,\n      bool _isOpen\n    )\n  {\n    _name = name();\n    _symbol = symbol();\n    _decimals = decimals();\n    _totalSupply = totalSupply();\n    _tokenPrice = tokenPrice;\n    _hardCap = hardCap;\n    _softCap = softCap;\n    _tokensSold = tokensSold;\n    _opensAt = opensAt;\n    _closesAt = closesAt;\n    _isOpen = true;\n  }\n\n  function getAddressInfo(\n    address buyer\n  ) external view returns (bool isWhitelisted, uint256 buyerTokens) {\n    isWhitelisted = whitelisted[buyer];\n    buyerTokens = tokensBought[buyer];\n  }\n}\n",
  "sourcePath": "/Users/diamondniam/Laboratory/Development/Test/DiamondNiamToken/contracts/Token.sol",
  "compiler": {
    "name": "solc",
    "version": "0.8.21+commit.d9974bed.Emscripten.clang"
  },
  "schemaVersion": "3.4.16",
  "updatedAt": "2025-08-05T16:09:51.864Z",
  "networkType": "ethereum",
  "devdoc": {
    "errors": {
      "AccessControlBadConfirmation()": [
        {
          "details": "The caller of a function is not the expected one. NOTE: Don't confuse with {AccessControlUnauthorizedAccount}."
        }
      ],
      "AccessControlUnauthorizedAccount(address,bytes32)": [
        {
          "details": "The `account` is missing a role."
        }
      ],
      "ECDSAInvalidSignature()": [
        {
          "details": "The signature derives the `address(0)`."
        }
      ],
      "ECDSAInvalidSignatureLength(uint256)": [
        {
          "details": "The signature has an invalid length."
        }
      ],
      "ECDSAInvalidSignatureS(bytes32)": [
        {
          "details": "The signature has an S value that is in the upper half order."
        }
      ],
      "ERC20InsufficientAllowance(address,uint256,uint256)": [
        {
          "details": "Indicates a failure with the `spender`s `allowance`. Used in transfers.",
          "params": {
            "allowance": "Amount of tokens a `spender` is allowed to operate with.",
            "needed": "Minimum amount required to perform a transfer.",
            "spender": "Address that may be allowed to operate on tokens without being their owner."
          }
        }
      ],
      "ERC20InsufficientBalance(address,uint256,uint256)": [
        {
          "details": "Indicates an error related to the current `balance` of a `sender`. Used in transfers.",
          "params": {
            "balance": "Current balance for the interacting account.",
            "needed": "Minimum amount required to perform a transfer.",
            "sender": "Address whose tokens are being transferred."
          }
        }
      ],
      "ERC20InvalidApprover(address)": [
        {
          "details": "Indicates a failure with the `approver` of a token to be approved. Used in approvals.",
          "params": {
            "approver": "Address initiating an approval operation."
          }
        }
      ],
      "ERC20InvalidReceiver(address)": [
        {
          "details": "Indicates a failure with the token `receiver`. Used in transfers.",
          "params": {
            "receiver": "Address to which tokens are being transferred."
          }
        }
      ],
      "ERC20InvalidSender(address)": [
        {
          "details": "Indicates a failure with the token `sender`. Used in transfers.",
          "params": {
            "sender": "Address whose tokens are being transferred."
          }
        }
      ],
      "ERC20InvalidSpender(address)": [
        {
          "details": "Indicates a failure with the `spender` to be approved. Used in approvals.",
          "params": {
            "spender": "Address that may be allowed to operate on tokens without being their owner."
          }
        }
      ],
      "ERC2612ExpiredSignature(uint256)": [
        {
          "details": "Permit deadline has expired."
        }
      ],
      "ERC2612InvalidSigner(address,address)": [
        {
          "details": "Mismatched signature."
        }
      ],
      "InvalidAccountNonce(address,uint256)": [
        {
          "details": "The nonce used for an `account` is not the expected current nonce."
        }
      ]
    },
    "events": {
      "Approval(address,address,uint256)": {
        "details": "Emitted when the allowance of a `spender` for an `owner` is set by a call to {approve}. `value` is the new allowance."
      },
      "EIP712DomainChanged()": {
        "details": "MAY be emitted to signal that the domain could have changed."
      },
      "RoleAdminChanged(bytes32,bytes32,bytes32)": {
        "details": "Emitted when `newAdminRole` is set as ``role``'s admin role, replacing `previousAdminRole` `DEFAULT_ADMIN_ROLE` is the starting admin for all roles, despite {RoleAdminChanged} not being emitted to signal this."
      },
      "RoleGranted(bytes32,address,address)": {
        "details": "Emitted when `account` is granted `role`. `sender` is the account that originated the contract call. This account bears the admin role (for the granted role). Expected in cases where the role was granted using the internal {AccessControl-_grantRole}."
      },
      "RoleRevoked(bytes32,address,address)": {
        "details": "Emitted when `account` is revoked `role`. `sender` is the account that originated the contract call:   - if using `revokeRole`, it is the admin role bearer   - if using `renounceRole`, it is the role bearer (i.e. `account`)"
      },
      "Transfer(address,address,uint256)": {
        "details": "Emitted when `value` tokens are moved from one account (`from`) to another (`to`). Note that `value` may be zero."
      }
    },
    "kind": "dev",
    "methods": {
      "DOMAIN_SEPARATOR()": {
        "details": "Returns the domain separator used in the encoding of the signature for {permit}, as defined by {EIP712}."
      },
      "allowance(address,address)": {
        "details": "Returns the remaining number of tokens that `spender` will be allowed to spend on behalf of `owner` through {transferFrom}. This is zero by default. This value changes when {approve} or {transferFrom} are called."
      },
      "approve(address,uint256)": {
        "details": "See {IERC20-approve}. NOTE: If `value` is the maximum `uint256`, the allowance is not updated on `transferFrom`. This is semantically equivalent to an infinite approval. Requirements: - `spender` cannot be the zero address."
      },
      "balanceOf(address)": {
        "details": "Returns the value of tokens owned by `account`."
      },
      "decimals()": {
        "details": "Returns the number of decimals used to get its user representation. For example, if `decimals` equals `2`, a balance of `505` tokens should be displayed to a user as `5.05` (`505 / 10 ** 2`). Tokens usually opt for a value of 18, imitating the relationship between Ether and Wei. This is the default value returned by this function, unless it's overridden. NOTE: This information is only used for _display_ purposes: it in no way affects any of the arithmetic of the contract, including {IERC20-balanceOf} and {IERC20-transfer}."
      },
      "eip712Domain()": {
        "details": "returns the fields and values that describe the domain separator used by this contract for EIP-712 signature."
      },
      "getRoleAdmin(bytes32)": {
        "details": "Returns the admin role that controls `role`. See {grantRole} and {revokeRole}. To change a role's admin, use {_setRoleAdmin}."
      },
      "grantRole(bytes32,address)": {
        "details": "Grants `role` to `account`. If `account` had not been already granted `role`, emits a {RoleGranted} event. Requirements: - the caller must have ``role``'s admin role. May emit a {RoleGranted} event."
      },
      "hasRole(bytes32,address)": {
        "details": "Returns `true` if `account` has been granted `role`."
      },
      "name()": {
        "details": "Returns the name of the token."
      },
      "nonces(address)": {
        "details": "Returns the current nonce for `owner`. This value must be included whenever a signature is generated for {permit}. Every successful call to {permit} increases ``owner``'s nonce by one. This prevents a signature from being used multiple times."
      },
      "permit(address,address,uint256,uint256,uint8,bytes32,bytes32)": {
        "details": "Sets `value` as the allowance of `spender` over ``owner``'s tokens, given ``owner``'s signed approval. IMPORTANT: The same issues {IERC20-approve} has related to transaction ordering also apply here. Emits an {Approval} event. Requirements: - `spender` cannot be the zero address. - `deadline` must be a timestamp in the future. - `v`, `r` and `s` must be a valid `secp256k1` signature from `owner` over the EIP712-formatted function arguments. - the signature must use ``owner``'s current nonce (see {nonces}). For more information on the signature format, see the https://eips.ethereum.org/EIPS/eip-2612#specification[relevant EIP section]. CAUTION: See Security Considerations above."
      },
      "renounceRole(bytes32,address)": {
        "details": "Revokes `role` from the calling account. Roles are often managed via {grantRole} and {revokeRole}: this function's purpose is to provide a mechanism for accounts to lose their privileges if they are compromised (such as when a trusted device is misplaced). If the calling account had been revoked `role`, emits a {RoleRevoked} event. Requirements: - the caller must be `callerConfirmation`. May emit a {RoleRevoked} event."
      },
      "revokeRole(bytes32,address)": {
        "details": "Revokes `role` from `account`. If `account` had been granted `role`, emits a {RoleRevoked} event. Requirements: - the caller must have ``role``'s admin role. May emit a {RoleRevoked} event."
      },
      "supportsInterface(bytes4)": {
        "details": "Returns true if this contract implements the interface defined by `interfaceId`. See the corresponding https://eips.ethereum.org/EIPS/eip-165#how-interfaces-are-identified[ERC section] to learn more about how these ids are created. This function call must use less than 30 000 gas."
      },
      "symbol()": {
        "details": "Returns the symbol of the token, usually a shorter version of the name."
      },
      "totalSupply()": {
        "details": "Returns the value of tokens in existence."
      },
      "transfer(address,uint256)": {
        "details": "See {IERC20-transfer}. Requirements: - `to` cannot be the zero address. - the caller must have a balance of at least `value`."
      },
      "transferFrom(address,address,uint256)": {
        "details": "See {IERC20-transferFrom}. Skips emitting an {Approval} event indicating an allowance update. This is not required by the ERC. See {xref-ERC20-_approve-address-address-uint256-bool-}[_approve]. NOTE: Does not update the allowance if the current allowance is the maximum `uint256`. Requirements: - `from` and `to` cannot be the zero address. - `from` must have a balance of at least `value`. - the caller must have allowance for ``from``'s tokens of at least `value`."
      }
    },
    "version": 1
  },
  "userdoc": {
    "kind": "user",
    "methods": {},
    "version": 1
  }
}